:106B63007F02124D5812692E126974126FA91255C1
:106B73000D124C33126A76126502127148125FD9F4
:106B8300126D561224A9127148122CC2126B9B1259
:086B93004AF812655B80F5224F
:041BEB0041076C0042
:03009B00026FE011
:106FE000C0E0C083C082C09175910090076CE5D964
:0A6FF000F0D091D082D083D0E032BF
:1058CE009007331207EFE4F59143D601F59143D7D4
:1058DE0001F59143D702F59153D6EFF59153D6F7D3
:1058EE007B08FAF9F8900733E0FCA3E0FDA3E0FE95
:1058FE00A3E0FF12073C900737E0F8A3E0F9A3E01E
:10590E00FAA3E0FB12073CEF24FFFFEE34FFFEED9F
:10591E0034FFFDEC34FFFCEFE48FDB53DCF07B084F
:10592E00FAF9F8900733E0FCA3E0FDA3E0FEA3E054
:10593E00FF12073C900737E0F8A3E0F9A3E0FAA3C3
:10594E00E0FB12073CEF24FFFFEE34FFFEED34FFC9
:10595E00FDEC34FFFC78081207DCEF540F42DCE458
:0E596E00F59143D74053D7CFF59143D6802211
:1070DE00E4F59153D6FDE5DF5402640260F8AFD9B2
:0170EE00227F
:10000E00E4F59153D6FB8FD9E5DF440860FAE4F5A9
:05001E009153D6FB2206
:040003008F828E83D7
:03000700E493FF80
:01000A0022D3
:1021CF00EE7016EF24FE600B04700EE4F59153E1F0
:1021DF00EF8006E4F59143E110EDB41100400302E6
:1021EF0024A29021F8F828287302222B02225102F0
:1021FF00227A0222A30222CC0222F502231E0223FC
:10220F004702247002248802237002239B0223C6F4
:10221F000223F102241C02244602249675910253D4
:10222F00F40F43F41075910143B52053B6DF759148
:10223F0001E4F5CE43CE01F59153A1F043E1010244
:10224F0024A275910253F4F043F40175910143B543
:10225F001053B6EF759101E4F5CE43CE02F59153CD
:10226F00A1F043A10143E1010224A275910253F3AE
:10227F000F43F31075910143B50853B6F7759101EC
:10228F00E4F5CE43CE04F59153A1F043A10243E10F
:10229F00010224A275910253F3F043F301759101EA
:1022AF0043B50453B6FB759101E4F5CE43CE08F563
:1022BF009153A1F043A10343E1010224A2759102BE
:1022CF0053F20F43F21075910143B50253B6FD75EA
:1022DF009101E4F5CE43CE10F59153A1F043A10443
:1022EF0043E1010224A275910253F2F043F201750A
:1022FF00910143B50153B6FE759101E4F5CE43CE7E
:10230F0020F59153A1F043A10543E1010224A275E9
:10231F00910253F60F43F61075910143C20253C356
:10232F00FD759101E4F5CE43CE40F59153A1F043F5
:10233F00A10643E1010224A275910253F7F043F77E
:10234F000175910143C20453C3FB759101E4F5CEAE
:10235F0043CE80F59153A1F043A10743E10102243D
:10236F00A275910253F6F043F60175910143C20134
:10237F0053C3FEE4F591759102F5CE43CE04F5916A
:10238F0053A13043A10A43E1010224A275910253E4
:10239F00950F43951075910243848053857FE4F523
:1023AF0091759102F5CE43CE08F59153A13043A11B
:1023BF000B43E1010224A27591025395F04395015D
:1023CF007591024384405385BFE4F591759102F5F1
:1023DF00CE43CE10F59153A13043A10C43E101023E
:1023EF0024A275910253940F439410759102438464
:1023FF00205385DFE4F591759102F5CE43CE20F59C
:10240F009153A13043A10D43E1010224A275910222
:10241F005394F04394017591024384105385EFE474
:10242F00F591759102F5CE43CE40F59153A130430E
:10243F00A10E43E101805C75910253F50F43F51036
:10244F0075910143B58053B67FE4F591759102F50F
:10245F00CE43CE80F59153A13043A10F43E10180CC
:10246F0032E4F59153E1FEF59143A140F59153A16B
:10247F00F043A10843E101801AE4F59153A1F04321
:10248F00A10943E101800CE4F59153A1F043A10AA6
:0A249F0043E101E4F59143E101225D
:0771C500E4F59153E1FE2205
:106CFC00900768EEF0A3EFF0E4F591EFF5CB900779
:106D0C0068E0F5E4ED14F5E5EB14600A04700DE4AD
:0D6D1C00F59143E78022E4F59153E77F22D3
:106FC500E4F59153E78FEF5407FFC454F042E753BC
:0B6FD500E2F1ED5407FF25E042E2224C
:1062D400E4F591EF14600F14601414601924037032
:1062E4001B53A1CF801653A1CF43A110800E53A1FD
:1062F400CF43A120800653A1CF43A130ED14600FFA
:106304001460141460192403701B53E1F3801653B2
:10631400E1F343E104800E53E1F343E108800653C3
:10632400E1F343E10CAF038FE3E4F59153A1BF43E1
:03633400E1022261
:0771CC00E4F59153E1FD22FF
:106CCE00E4F591EF14600704702353A8BF22ED146E
:106CDE00600D24FE60112403701043E130800B43DD
:0E6CEE00E10153E1DF800353E1CF43A84022D0
:105EF100E4F591A2AF9205C2AF75C7AA75C7554324
:105F01009F01A20592AF75AF0475A60DF5A7F59196
:105F1100A2AF9205C2AF75C7AA75C75543A401A226
:105F21000592AFE5AE540FFD75A60CE4F591A2AF55
:105F31009205C2AF75C7AA75C75543A401A20592C0
:105F4100AFAFAEEF75F010A47C002DFFEC35F0FE85
:105F5100E4F591A2AF9205C2AF75C7AA75C75553B3
:065F61009FFEA20592AFB5
:015F67002217
:10519400EF14601B04702E759101A2AF9205C2AF8B
:1051A40075C7AA75C75553A9FEA20592AF80167597
:1051B4009101A2AF9205C2AF75C7AA75C75543A99D
:1051C40001A20592AFED14601B04702E759101A22B
:1051D400AF9205C2AF75C7AA75C75543A902A20508
:1051E40092AF8016759101A2AF9205C2AF75C7AA9E
:1051F40075C75553A9FDA20592AFEB146021146045
:105204003514604914605D2404706F759101A2AF78
:105214009205C2AF75C7AA75C755A20592AF22758C
:105224009101A2AF9205C2AF75C7AA75C75543A92C
:1052340010A20592AF22759101A2AF9205C2AF757B
:10524400C7AA75C75543A920A20592AF227591013B
:10525400A2AF9205C2AF75C7AA75C75543A930A2BC
:105264000592AF22759101A2AF9205C2AF75C7AA8C
:0B52740075C75543A940A20592AF2268
:10159400AE03EEC454F02F12082C15D20015DA0154
:1015A40015E20215EA0315F20415FA0516020616E9
:1015B4000A07161210161A11162212162A131632B8
:1015C40014163A15164216164A170000165075914D
:1015D4000153E9FE807675910153E9FD806E7591A2
:1015E4000153E9FB806675910153E9F7805E7591BB
:1015F4000153E9EF805675910153E9DF804E7591EF
:101604000153E9BF804675910153E97F803E75918E
:101614000143E901803675910143E902802E7591F9
:101624000143E904802675910143E908801E759100
:101634000143E910801675910143E920800E7591EC
:101644000143E940800675910143E980AE05EEC48B
:1016540054F02F12082C16A60016B50116C4021653
:10166400D30316E20416F105170006170F07171E19
:1016740010172D11173C12174B13175A141769150D
:1016840017781617861717942017A22117B0221758
:10169400BE2317CC2417DA2517E82617F6270000EF
:1016A400180275910143EA0175910153EBFE02188A
:1016B4000275910143EA0275910153EBFD02180290
:1016C40075910143EA0475910153EBFB021802750D
:1016D400910143EA0875910153EBF70218027591E1
:1016E4000143EA1075910153EBEF02180275910161
:1016F40043EA2075910153EBDF021802759101430F
:10170400EA4075910153EBBF02180275910143EA57
:101714008075910153EB7F02180275910153EAFE23
:1017240075910143EB0102180275910153EAFD75AD
:10173400910143EB0202180275910153EAFB759182
:101744000143EB0402180275910153EAF775910104
:1017540043EB0802180275910153EAEF75910143B6
:10176400EB1002180275910153EADF75910143EB06
:101774002002180275910153EABF75910143EB40B1
:10178400807C75910153EA7F75910143EB80806EF3
:1017940075910143EA0175910143EB0180607591F4
:1017A4000143EA0275910143EB02805275910143B2
:1017B400EA0475910143EB04804475910143EA08FE
:1017C40075910143EB08803675910143EA107591D8
:1017D4000143EB10802875910143EA207591014380
:1017E400EB20801A75910143EA4075910143EB4067
:1017F400800C75910143EA8075910143EB80EFB44D
:10180400080040030218D1901812F828287302180F
:101814002A02184002185502186A02187F02189406
:101824000218A90218BEE4F5A1900754E0FFC454BD
:10183400F0FFA3E0540F2FF5A10218D1E4F5A29014
:101844000754E0FFC454F0FFA3E0540F2FF5A28027
:101854007CE4F5A3900754E0FFC454F0FFA3E054E4
:101864000F2FF5A38067E4F5A4900754E0FFC45458
:10187400F0FFA3E0540F2FF5A48052E4F5A59007E0
:1018840054E0FFC454F0FFA3E0540F2FF5A5803DAE
:10189400E4F5A6900754E0FFC454F0FFA3E0540F0E
:1018A4002FF5A68028E4F5A7900754E0FFC454F070
:1018B400FFA3E0540F2FF5A78013E4F5AF9007546E
:1018C400E0FFC454F0FFA3E0540F2FF5AFE4F5910B
:0418D400439B02220E
:105BF200759101EB14604204707CEFB4070050769B
:105C0200905C09F8282873025C1E025C22025C2662
:105C1200025C2A025C2E025C32025C36ED42922267
:105C2200ED429322ED429422ED429522ED429622DC
:105C3200ED429722ED42972222EFB40700503790AF
:105C42005C48F8282873025C5D025C61025C6502B4
:105C52005C69025C6D025C71025C75ED428A22ED48
:105C6200428B22ED428C22ED428D22ED428E22EDBC
:075C7200428F22ED428F2258
:105A2700759101EB14604F046003025AC1EFB4078C
:105A3700004003025AC1905A44F8282873025A5961
:105A4700025A5E025A63025A68025A6D025A720279
:105A57005A77EDF4529222EDF4529322EDF45294D8
:105A670022EDF4529522EDF4529622EDF45297224C
:105A7700EDF452972222EFB40700503E905A8AF86D
:105A8700282873025A9F025AA4025AA9025AAE0240
:105A97005AB3025AB8025ABDEDF4528A22EDF452B3
:105AA7008B22EDF4528C22EDF4528D22EDF4528EBE
:0B5AB70022EDF4528F22EDF4528F22FA
:07536300A90590071FEFF000
:10536A00759101EFB40700504490537AF8282873D6
:10537A0002538F02539502539B0253A10253A70271
:10538A0053AD0253B3ACB1AEB28022ACB3AEB4806B
:10539A001CACB5AEB68016ACC2AEC38010ACB9AE0A
:1053AA00BA800AACBDAEBE8004AC84AE85EB146094
:1053BA001414601A14602024037022E9F4FF5CFCC0
:1053CA00EE5FFE8018E9F45CFCEE49FE800FEC49C2
:1053DA00FCE9F45EFE8006EC49FCEE49FE90071FEC
:1053EA00E0B4070050449053F7F828287302540C8D
:1053FA0002541202541802541E02542402542A025D
:10540A0054308CB18EB280228CB38EB4801C8CB591
:10541A008EB680168CC28EC380108CB98EBA800A62
:0D542A008CBD8EBE80048C848E85E4F591CF
:015437002252
:10620200E4F591EF14603304705FE47B04FAF9F86B
:10621200900722E0FCA3E0FDA3E0FEA3E0FF12074B
:106222003C900726E0F8A3E0F9A3E0FAA3E0FB1212
:10623200073CEF14F5BE43C04022E47B04FAF9F8B0
:10624200900722E0FCA3E0FDA3E0FEA3E0FF12071B
:106252003C900726E0F8A3E0F9A3E0FAA3E0FB12E2
:0A626200073CEF14F5B543E84022B5
:10709600E4F591EF14600704700753C0BF2253E86C
:0270A600BF2207
:10701300E4F591EF14600A04700DE4F591439B01CC
:0870230022E4F591439C2022B8
:10702B00E4F591EF14600A04700DE4F591539BFEA7
:08703B0022E4F591539CDF22D1
:10707000E4F591EF146007047006AEBD8002AEB473
:02708000AF0659
:0170820022EB
:1065B400EF14602B04704FED146011146015146017
:1065C400192403701AE4F5918BC180137591028B21
:1065D400A1800C7591028BA280057591028BA3EDAD
:1065E40014601014601314601624037019E4F591F8
:1065F4008BB2227591028BA4227591028BA5227510
:076604009102AF038FA622F3
:1070A800E4F591EF14600704700743BF062243B666
:0270B8000622AE
:1070BA00E4F591EF14600704700753BFFB2253B63F
:0270CA00FB22A7
:1070CC00E4F591EF14600704700753BFFE2253B62A
:0270DC00FE2292
:1070EF00759102EF146006047006ED42CFED42D7A2
:0170FF00226E
:10708300759102EF146007047008EDF452CFEDF42C
:03709300F5D7220C
:041BEF0041076D003D
:0300B300026F8D4C
:106F8D00C0E0C083C082C091759102D20690076D9A
:0C6F9D00E5D9F0D091D082D083D0E03252
:10581A0090073B1207EF75910243E6017591024327
:10582A00E70175910243E70275910253E6EF75911C
:10583A000253E6F7E47B08FAF9F890073BE0FCA389
:10584A00E0FDA3E0FEA3E0FF12073C90073FE0F86B
:10585A00A3E0F9A3E0FAA3E0FB12073CEF24FFFF61
:10586A00EE34FFFEED34FFFDEC34FFFCEFE48FDB9A
:10587A0053DCF07B08FAF9F890073BE0FCA3E0FD63
:10588A00A3E0FEA3E0FF12073C90073FE0F8A3E085
:10589A00F9A3E0FAA3E0FB12073CEF24FFFFEE3482
:1058AA00FFFEED34FFFDEC34FFFC78081207DCEF55
:1058BA00540F42DC75910243E74053E7CF759102DA
:0458CA0043E680220F
:10007E0075910253E6FDE5DF60067E007F01800488
:0C008E007E007F00EF64024E60ECAFD9F2
:01009A002243
:10009E0075910253E6FB8FD9E5DF30E3FB759102D4
:0400AE0053E6FB22F8
:061BF300C100C101C102A6
:106C6E0075910253F60F43F66075910153C2FD53B1
:106C7E00C3FD9007137402F0A31207FB0001C200BC
:106C8E007F007E367D6E7C01123FE3439802D20078
:016C9E0022D3
:103FE30090070F1207EF900713E024FE605D147033
:103FF300030240DB24FD600D1470030240DB240642
:10400300600302415FE4F59175985043892043872B
:1040130080F591438E10F59153C4DF7B10FAF9F8C4
:1040230090070FE0FCA3E0FDA3E0FEA3E0FF12076F
:104033003C900714E0F8A3E0F9A3E0FAA3E0FB1235
:10404300073CEFF404F58D43884022E4F59175981D
:104053005043878053C4F8F59143C4207B10FAF989
:10406300F890070FE0FCA3E0FDA3E0FEA3E0FF123E
:10407300073C900714E0F8A3E0F9A3E0FAA3E0FB00
:1040830012073CC3E49FFFE49EFE74019DFDE49C84
:10409300FC78081207DC8FC6E47B10FAF9F8900766
:1040A3000FE0FCA3E0FDA3E0FEA3E0FF12073C90BA
:1040B3000714E0F8A3E0F9A3E0FAA3E0FB12073C3E
:1040C300C3E49FFFE49EFE74019DFDE49CFCEFE4CA
:1040D3008FC5F59143C40822E4F59175F85075C472
:1040E300887B10FAF9F890070FE0FCA3E0FDA3E04A
:1040F300FEA3E0FF12073C900714E0F8A3E0F9A346
:10410300E0FAA3E0FB12073CC3E49FFFE49EFE74C6
:10411300019DFDE49CFC78081207DC8FC6E47B104C
:10412300FAF9F890070FE0FCA3E0FDA3E0FEA3E09B
:10413300FF12073C900714E0F8A3E0F9A3E0FAA309
:10414300E0FB12073CC3E49FFFE49EFE74019DFD68
:0D415300E49CFCEFE48FC5F59143C4082205
:106F3400E4F591EF24F9600C0470103098FDAE99DB
:0D6F4400C298800730F8FDAE9AC2F8AF0683
:016F5100221D
:106EB400E4F591EF24F9600D047015C2998D9930B1
:106EC40099FDC29922C2F9AF058F9A30F9FDC2F932
:016ED400229B
:106D2900EF24F96013047024ED14600704701D53F7
:106D3900A8EF2243A8102222ED14600A04700DE482
:0D6D4900F591539CFE22E4F591439C01223C
:1060B900EF14600B04700EE4F591538EBF8006E473
:1060C900F591438E40759101ED24FE602024FE6018
:1060D9002324FC602624F8602924F0602C24E06045
:1060E9002F24C06032247F703453DFF82253DFF845
:1060F90043DF022253DFF843DF022253DFF843DF95
:10610900032253DFF843DF042253DFF843DF05227C
:0E61190053DFF843DF062253DFF843DF07228F
:102F3F00759101ED14600C1460112402701353DFAE
:102F4F003F800E53DF3F43DF40800653DF3F43DFB9
:102F5F0080EB14600804700853DFEF800343DF1029
:102F6F00EF14607514700302303E14700302309436
:102F7F001470030230EA14700302313F240560031A
:102F8F00023192900717E0FEA3E0FFE4FCFD9007EB
:102F9F0013E0F8A3E0F9A3E0FAA3E0FB1206B1E413
:102FAF007B64FAF9F812073C78081207DC8FD2908D
:102FBF000717E0FEA3E0FFE4FCFD900713E0F8A382
:102FCF00E0F9A3E0FAA3E0FB1206B1E47B64FAF99F
:102FDF00F812073C8FDA023192900717E0FEA3E058
:102FEF00FFE4FCFD900713E0F8A3E0F9A3E0FAA3D8
:102FFF00E0FB1206B1E47B64FAF9F812073C78089B
:10300F001207DC8FD3900717E0FEA3E0FFE4FCFD6F
:10301F00900713E0F8A3E0F9A3E0FAA3E0FB120690
:10302F00B1E47B64FAF9F812073C8FDB023192901E
:10303F000717E0FEA3E0FFE4FCFD900713E0F8A301
:10304F00E0F9A3E0FAA3E0FB1206B1E47B64FAF91E
:10305F00F812073C78081207DC8FD4900717E0FEB0
:10306F00A3E0FFE4FCFD900713E0F8A3E0F9A3E071
:10307F00FAA3E0FB1206B1E47B64FAF9F812073CFD
:10308F008FDC023192900717E0FEA3E0FFE4FCFD16
:10309F00900713E0F8A3E0F9A3E0FAA3E0FB120610
:1030AF00B1E47B64FAF9F812073C78081207DC8F59
:1030BF00D5900717E0FEA3E0FFE4FCFD900713E0B7
:1030CF00F8A3E0F9A3E0FAA3E0FB1206B1E47B64F6
:1030DF00FAF9F812073C8FDD023192900717E0FEE4
:1030EF00A3E0FFE4FCFD900713E0F8A3E0F9A3E0F1
:1030FF00FAA3E0FB1206B1E47B64FAF9F812073C7D
:10310F0078081207DC8FC4900717E0FEA3E0FFE4F6
:10311F00FCFD900713E0F8A3E0F9A3E0FAA3E0FBAE
:10312F001206B1E47B64FAF9F812073C8FCC805396
:10313F00900717E0FEA3E0FFE4FCFD900713E0F813
:10314F00A3E0F9A3E0FAA3E0FB1206B1E47B64FA73
:10315F00F9F812073C78081207DC8FC5900717E0C3
:10316F00FEA3E0FFE4FCFD900713E0F8A3E0F9A352
:10317F00E0FAA3E0FB1206B1E47B64FAF9F8120758
:10318F003C8FCD900713E0FCA3E0FDA3E0FEA3E08E
:10319F00FF78081207DC8FD1900713E0A3E0A3E0BC
:0531AF00A3E0F5D922A8
:10639600759101A2AF9205C2AFAE05EE541075C756
:1063A600AA75C75542F9EF14601514601D146025CF
:1063B6002403702A75C7AA75C75543F901801F754E
:1063C600C7AA75C75543F902801475C7AA75C7557C
:1063D60043F904800975C7AA75C75543F907EE75D1
:0C63E600C7AA75C755F5FAA20592AF22B0
:1071000075910175C7AA75C755E4F5F9A20592AF47
:01711000225C
:0771D300E4F59143D1802295
:0771DA00E4F59153D17F227F
:10612700EF14600B04700EE4F591538EBF8006E404
:10613700F591438E40759102ED24FE602024FE60A8
:106147002324FC602624F8602924F0602C24E060D6
:106157002F24C06032247F7034539DF822539DF85A
:10616700439D0222539DF8439D0222539DF8439D70
:106177000322539DF8439D0422539DF8439D052216
:0E618700539DF8439D0622539DF8439D072229
:1039AD0090070FEDF0C091EF24FE7003023A4D1415
:1039BD007003023ACE24026003023B4290070FE0EF
:1039CD0024FE602824FE603024FC603824F860401A
:1039DD0024F0604824E0605024C06058247F6003C8
:1039ED00023B42759102539DF8023B427591025381
:1039FD009DF8439D01023B42759102539DF8439DF5
:103A0D0002023B42759102539DF8439D03023B42D6
:103A1D00759102539DF8439D04023B4275910253EB
:103A2D009DF8439D05023B42759102539DF8439DC0
:103A3D0006023B42759102439D07023B42023B4207
:103A4D0090070FE024FE602824FE603024FC6038CF
:103A5D0024F8604024F0604824E0605024C0605792
:103A6D00247F6003023B4275910253C5F8023B422D
:103A7D0075910253C5F843C501023B42759102533E
:103A8D00C5F843C502023B4275910253C5F843C5C3
:103A9D0003023B4275910253C5F843C504023B42F4
:103AAD0075910253C5F843C505023B42759102530A
:103ABD00C5F843C506807E75910243C507807680A3
:103ACD007490070FE024FE602424FE602B24FC601C
:103ADD003224F8603924F0604024E0604724C0604F
:103AED004E247F705075910253D5F8804875910220
:103AFD0053D5F843D501803D75910253D5F843D583
:103B0D0002803275910253D5F843D5038027759104
:103B1D000253D5F843D504801C75910253D5F84353
:103B2D00D505801175910253D5F843D506800675DC
:083B3D00910243D507D091224B
:104F9400900710EDF0C091759102EF24FE605F144C
:104FA4007003025053240260030250A4900710E0DF
:104FB400146024047040900713E0FCA3E0FDAF03E9
:104FC400AE0212061E7C007D64120630AC06AD07EC
:104FD400ECF58A8D9A801F900713E0FCA3E0FDAFE7
:104FE40003AE0212061E7C007D64120630AC06ADD0
:104FF40007ECF58B8D9BEAF5868B990250A49007FC
:1050040010E0146024047040900713E0FCA3E0FD5A
:10501400AF03AE0212061E7C007D64120630AC069D
:10502400AD07ECF5BA8DC2801F900713E0FCA3E036
:10503400FDAF03AE0212061E7C007D64120630AC86
:1050440006AD07ECF5BB8DC3EAF5B98BC180519071
:105054000710E0146024047040900713E0FCA3E000
:10506400FDAF03AE0212061E7C007D64120630AC56
:1050740006AD07ECF5CA8DD2801F900713E0FCA3A0
:10508400E0FDAF03AE0212061E7C007D6412063002
:10509400AC06AD07ECF5CB8DD3EAF5C9AF038FD1E0
:0350A400D0912286
:0B42DD0090074BEEF0A3EFF0A3EDF014
:1042E800E4A3F090074BE0FEA3E07807CEC313CE1B
:1042F80013D8F97807C333CE33CED8F9FF90074FD8
:10430800EEF0A3EFF0E490074EF090074EE0FFC305
:104318009480748094805029900750E02FFF900774
:104328004FE03400FE1200037E0090074EE024198F
:10433800F582E43403F583EFF090074EE004F08053
:10434800C990074DE0FF7C0090074CE0547F24198A
:10435800F582EC3403F583EFF090074FE0FEA3E01D
:10436800F5A6EEF5A775AEFFE4F591A2AF9205C2EA
:10437800AF75C7AA75C755439F01A20592AFF591BE
:10438800A2AF9205C2AF75C7AA75C75543A501A2CA
:104398000592AF75AF22F591A2AF9205C2AF75C76E
:1043A800AA75C75543A401A20592AFF591A2AF9291
:1043B80005C2AF75C7AA75C755439F01A20592AF3D
:1043C800F591A2AF9205C2AF75C7AA75C75543A5A7
:1043D80001A20592AF75AF2190074EF090074EE00D
:1043E800FDC39480748094805038A3E0FEA3E0FC61
:1043F800ED2CF5A6EEF5A774192DF582E43403F536
:1044080083E0F5AEE4F591A2AF9205C2AF75C7AAF5
:1044180075C75543A401A20592AF90074EE004F07A
:1044280080BAE4F591A2AF9205C2AF75C7AA75C765
:104438005553A5FEA20592AFF591A2AF9205C2AF62
:0D44480075C7AA75C755539FFEA20592AF18
:014455002244
:1055DD00900743EEF0A3EFF0A3EBF0A3EAF0A3E9FD
:0155ED00F0CD
:1055EE00900743E0FCA3E0FDAE047807CEC313CED4
:1055FE0013D8F9FB900748E0FEA3E02DFFEC3EFE2A
:10560E00EF7807CEC313CE13D8F990074AF0900760
:10561E004AE06B6056900743E0FEA3E0FFA3E0FB79
:10562E00A3E0FAA3E0F99004B67480F0122A1FAD3D
:10563E0007ED900744E02FF0900743E03400F0EDC3
:10564E00900746E48FF0120685EDC3900749E09F60
:10565E00F0900748E09400F0900743E0FEA3E07856
:10566E0007CEC313CE13D8F9FB80A3900748E0FCF6
:10567E00A3E0FD4C6019900743E0FEA3E0FFA3E01A
:0F568E00FBA3E0FAA3E0F99004B6EDF0122A1F97
:01569D0022EA
:10626C00900714EEF0A3EFF0A3EBF0A3EAF0A3E990
:01627C00F031
:10627D00E490071BF0A3F0900719E0FEA3E0FFA345
:10628D00E0FCA3E0FDC39FEC9E503B900715E02D75
:10629D00FF900714E03C8F82F583E493FF9007167F
:1062AD00E0FBA3E0FAA3E0F990071BE0A3E0F58281
:1062BD008C83EF1205FC90071CE004F0700690072C
:0662CD001BE004F080B1AB
:0162D30022A8
:102A1F009004B1EEF0A3EFF0A3EBF0A3EAF0A3E97B
:012A2F00F0B6
:102A3000E4F591A2AF9205C2AF75C7AA75C7554319
:102A40009F01A20592AFF591A2AF9205C2AF75C7E3
:102A5000AA75C75543A501A20592AF9004B1E0FE47
:102A6000A3E0FF547FFD9004B8F0C374809DFD90F7
:102A700004B7F09004B6E0D39D4006A3E09004B6FE
:102A8000F09004B9EEF0A3EFF0E49004B7F09004F6
:102A9000B6E0FFA3E0FEC39F501B9004B9E0FCA387
:102AA000E02EF582E43CF583E493F470089004B7DB
:102AB000E004F080D99004B7E06F6003022B6675E4
:102AC000AF219004B1E0FEA3E0F5A6EEF5A7E490F7
:102AD00004B7F09004B6E0FFA3E0FEC39F5035902A
:102AE00004B3E0FBA3E0FAA3E0F98E827583001241
:102AF000059BF5AEE4F591A2AF9205C2AF75C7AAEA
:102B000075C75543A401A20592AF05A69004B7E08E
:102B100004F080BFE49004B7F09004B6E0FFA3E0B7
:102B2000FEC39F502F9004B3E0FBA3E0FAA3E0F9AB
:102B30008E8275830012059BFF9004B9E0FCA3E030
:102B40002EF582E43CF583E493B507089004B7E0E2
:102B500004F080C59004B6E0FFA3E06F7003022C80
:102B6000A68003022CA69004B1E0FFA3E05480905D
:102B700004B9CFF0A3EFF0E49004B7F09004B7E00D
:102B8000C39480748094805027E0FF9004B9E0FCE7
:102B9000A3E02FF582E43CF583E493FE74BB2FF5AC
:102BA00082E43404F583EEF09004B7E004F080CCC6
:102BB000E49004B7F09004B6E0FFA3E0C39F503167
:102BC0009004B3E0FBA3E0FAA3E0F99004B7E0FFC0
:102BD000F58275830012059BFE9004B8E02F24BB9C
:102BE000F582E43404F583EEF09004B7E004F0805D
:102BF000C49004B1E0FEA3E05480F5A6EEF5A775FD
:102C0000AF2275AEFFE4F591A2AF9205C2AF75C7D2
:102C1000AA75C75543A401A20592AF75AF219004D0
:102C2000B7F09004B7E0FFC3948074809480502D77
:102C300074BB2FF582E43404F583E0F5AEE4F5913E
:102C4000A2AF9205C2AF75C7AA75C75543A401A22A
:102C50000592AF05A69004B7E004F080C5E49004A7
:102C6000B7F09004B7E0FF7E00C394807480948036
:102C7000502BE0FD9004B9E0FAA3E02DF582E43A90
:102C8000F583E493FC74BB2DF582E43404F583E012
:102C9000FDECB505089004B7E004F080C5EF648052
:102CA0004E6003022BF1E4F591A2AF9205C2AF751D
:102CB000C7AA75C755539FFEA20592AF9004B6E010
:012CC000FF14
:012CC10022F0
:10689B0090070FEFF0A3EDF0A3EBF07591031271DE
:1068AB00E1E4FF126AB490070FE014600B04700E62
:1068BB0075910353F9BF800675910343F94053F962
:1068CB00C0900712E042F953F9F3A3E042F99007A5
:0B68DB0011E0F5F1900710E0F5FF223E
:10003E00759103EF54C042FFEF24C0602C24C060C2
:10004E002814600714600924417021AF058FFD222A
:10005E0043FF80759103A2AF9205C2AF75C7AA7513
:0D006E00C75543F402A20592AFE4F5FD2250
:106ED500759103EF24FE600B04700E75910353FA50
:106EE500EF800675910343FA1053FAF8ED42FA2242
:0F711100759103ED42FEEF33333354F842FE2203
:106D8200759103EF25E025E04D4EFE75C7AA75C744
:106D920055F5F4EBFE75C7AA75C7558EF5EAFE7573
:0A6DA200C7AA75C7558EE943F90131
:016DAC0022C4
:106AB400EF60047E0F8002E4FE759103E4FFEFFDB6
:106AC4007C00C39419748094805016ED6410600E99
:106AD400ED640F6009ED640560048FFB8EFC0F808C
:0B6AE400DD75FB1F8EFC75FB1E8EFC99
:016AEF002284
:106EF500EF601324FD600F1460042403700E759178
:106F05000343FA08800675910353FAF7E4F59122D5
:106DFF00759103AE058EFBEB600EA807740108803A
:106E0F0002C333D8FC42FC22A8077401088002C3D6
:076E1F0033D8FCF452FC2201
:0A71760075910343F980E4F59122BE
:0771E10075910353F97F22B1
:1063F200E4F591A2AF9205C2AF75C7AA75C755431E
:106402009720A20592AFE596542060FAE4F591A296
:10641200AF9205C2AF75C7AA75C7555396FBA205C1
:1064220092AFF591A2AF9205C2AF75C7AA75C755D3
:106432005396FDA20592AFA2AF9205C2AF75C7AA4D
:0C64420075C755759734A20592AF002273
:104D5800EF14604C14606C147003024DEC14700373
:104D6800024E2D24046003024E777F0212575D7FA6
:104D7800021267ACE4FF12575DE4FF1267ACE597D7
:104D88005401640170031263F2E4F591A2AF920535
:104D9800C2AF75C7AA75C7555397DFA20592AF2250
:104DA8007F0212575D7F021267AC7F0112575D7F49
:104DB800011267ACE597540164016003024E771253
:104DC80063F2227F0212575D7F021267ACE4F5910D
:104DD800A2AF9205C2AF75C7AA75C75553977FA2F0
:104DE8000592AF227F0312575D7F031267ACE597E8
:104DF8005401640170031263F2E4F591A2AF9205C5
:104E0800C2AF75C7AA75C7555397DFA20592AFF50C
:104E180091A2AF9205C2AF75C7AA75C75553977FC0
:104E2800A20592AF227F0212575D7F021267AC7F04
:104E38000412575D7F041267ACE597540164017052
:104E4800031263F2E4F591A2AF9205C2AF75C7AA47
:104E580075C7555397DFA20592AFF591A2AF92059A
:104E6800C2AF75C7AA75C75553977FA20592AF22DF
:10575D00EF1460371460551460731470030257FB17
:10576D0024046003025819E4F591A2AF9205C2AF6B
:10577D0075C7AA75C755439780A20592AFE59644A4
:10578D007F647F600302581980F322E4F591A2AF84
:10579D009205C2AF75C7AA75C755439740A205922A
:1057AD00AFE59644BF64BF706380F622E4F591A225
:1057BD00AF9205C2AF75C7AA75C755439720A2050D
:1057CD0092AFE59644DF64DF704280F622E4F591F6
:1057DD00A2AF9205C2AF75C7AA75C755439710A260
:1057ED000592AFE59644EF64EF702180F622E4F563
:1057FD0091A2AF9205C2AF75C7AA75C75543970859
:0D580D00A20592AFE59644F764F760F8221B
:105CFE00EF14602414603814604C14606024047037
:105D0E0072E4F591A2AF9205C2AF75C7AA75C755D9
:105D1E0053977FA20592AF22E4F591A2AF9205C2EE
:105D2E00AF75C7AA75C7555397BFA20592AF22E4A8
:105D3E00F591A2AF9205C2AF75C7AA75C755539715
:105D4E00DFA20592AF22E4F591A2AF9205C2AF7524
:105D5E00C7AA75C7555397EFA20592AF22E4F591E6
:105D6E00A2AF9205C2AF75C7AA75C7555397F7A2D2
:045D7E000592AF22B9
:1067AC00A2AF9205C2AFEF146018146020146028D9
:1067BC001460302404703575C7AA75C75543960606
:1067CC00802A75C7AA75C755439607801F75C7AA37
:1067DC0075C7555396F8801475C7AA75C755439657
:1067EC0004800975C7AA75C755439602A20592AFD6
:0167FC00227A
:10704300E4F591A2AF9205C2AF75C7AA75C75543C0
:077053009F80A20592AF220D
:03000000025AC2DF
:105AC200787FE4F6D8FD9000007FFF7E10E4F0A31B
:0A5AD200DFFCDEFA758120025B178D
:101BF90060A203A00F6E0F320EF50EB60E770E36E9
:101C09000DF40DB20D6F0D2B0CE60CA10C5C0C162E
:101C19000BD00B8A0B440AFE0AB90A740A2F09EB86
:101C290009A70963092108E0089F0860082107E35B
:101C390007A7076B073106F806C0068A065406216E
:101C490005EE05BD058D055E0530050404D904B012
:101C590004870460043A041603F203D003AD038E2B
:101C6900036F03500334031702FC02E102C802AFF9
:101C790002980281026B02570242022E021B0209DC
:101C890001F701E601D601C601B601A8019A018C46
:101C9900017F017201654103990041039A004103E3
:0F1CA9009B0041039C0041039D0042039E0000ED
:105FD90075910253F40F43F41075910143B52053A1
:105FE900B6DF759101E4F5CE43CE01F59153A1F0E9
:105FF90043E1017D047F01FE1221CF7D077F03125A
:106009006FC57B027D017F01125194E4F59153A183
:106019007F7B017D027F0512536375910153B5EFB3
:1060290053B6EF7B017D047F0412536353D8FBE41D
:10603900F59153B1FD90047604F0E49004ACF0229C
:10619500E4F59153A17FF59143A140E5A130E7FBDB
:1061A500AFC3EF75F010A4FFAEF0ADC2E5F0EF4D53
:1061B500FFEE3395E0FDFC9007601207EF90076056
:1061C500E0A3E0A3E0FEA3E0FF900470E025E02457
:1061D5004CF582E43404F583EEF0A3EFF0900470FF
:1061E500E004F0900760E0FCA3E0FDA3E0FEA3E07F
:0C61F500FFE4F59153A17FF59153A1BF89
:01620100227A
:105F6800EF706D75910253F40F43F410759101436E
:105F7800B52053B6DF759101F5CE43CE01F59153A7
:105F8800A1F043E101F59153A17FF59143A140E5CB
:105F9800A130E7FBAFC3EF75F010A4FFAEF0ADC2C0
:105FA800E5F0EF4DFFEE3395E0FDFC9004A7E0250A
:105FB800E02483F582E43404F583EEF0A3EFF09057
:105FC80004A7E004F0E4F59153A17FF59153A1BF34
:015FD80022A6
:10087E00EF7003020B3424FC6003020D647F04123C
:10088E005F68900470E0C3941274809480500302E9
:10089E000D64E4F090044CE0FFA3E0900442CFF02E
:1008AE00A3EFF090044CE0FFA3E0900444CFF0A33C
:1008BE00EFF0E4A3F0A3F090070F04F090070FE021
:1008CE00FFC39412748094805051EF25E0244CF5B0
:1008DE0082E43404F583E0FEA3E0FFC3900445E018
:1008EE009F900444E09E5005EEF0A3EFF090070FAA
:1008FE00E025E0244CF582E43404F583E0FEA3E029
:10090E00FFD3900443E09F900442E09E4005EEF03A
:10091E00A3EFF090070FE004F080A1E490070FF032
:10092E0090070FE0FFC39412748094805025EF253A
:10093E00E0244CF582E43404F583E0FEA3E0FF905E
:10094E000447E02FF0900446E03EF090070FE004DD
:10095E00F080CD900442E0FEA3E0FFC3900447E098
:10096E009FFF900446E09EFE900444E0FCA3E0FD51
:10097E00C3EF9DFFEE9CA3F0A3EFF0900446E0C4FE
:10098E00F854F0C868FEA3E0C4540F48FF90044624
:10099E00EEF0A3EFF0A3EEF0A3EFF0A3E0FCA3E0E4
:1009AE00FDE41203D27BCD7ACC79CC783D1201AE28
:1009BE00C004C005C006C007900446E0FCA3E0FDDD
:1009CE00E41203D27466FBFAF9783F1201AED0033B
:1009DE00D002D001D0001200BD12040B900448EEDC
:1009EE00F0A3EFF0A3EEF0A3EFF0E490070FF0907A
:1009FE00070FE0FFC39450748094804003020D648F
:100A0E00EF25E024A0F582E43403F583E0FEA3E0B5
:100A1E00FF900448E0FCA3E0FDD39FEC9E40030250
:100A2E000B2B90070FE0FF25E024A2F582E43403A0
:100A3E00F583E0FAA3E0FBD3ED9BEC9A5003020B97
:100A4E002BEF941474809480506490070FE0F92576
:100A5E00E024A0F582E43403F583E0FAA3E0FBC3BF
:100A6E009DFFEA9CFE7C007D0A12061EE925E0240D
:100A7E00A2F582E43403F583E0FCA3E0FDC3EB9D15
:100A8E00FDEA9CFC120630AA06AB0790070FE0FFAA
:100A9E00C374139FFFE49400FE7C007D0A12061EB1
:100AAE00EF2BFFEE3A900471F0A3EFF0806F9007FA
:100ABE000FE0F925E024A0F582E43403F583E0FA93
:100ACE00A3E0FB900448E0FEA3E0FFC3EB9FFFEA28
:100ADE009EFE7C007D0A12061EE925E024A2F58208
:100AEE00E43403F583E0FCA3E0FDC3EB9DFDEA9C3B
:100AFE00FC120630AA06AB0790070FE024ECFFE4C9
:100B0E0034FFFE7C007D0A12061EEF2BFFEE3A909C
:100B1E000471F0A3EFF0900475E9F0F02290070F46
:060B2E00E004F00209FDE5
:100B3400E4FF125F689004A7E0C394127480948069
:100B44005003020D19E4F0900483E0FFA3E0900445
:100B540077CFF0A3EFF0900483E0FFA3E090047953
:100B6400CFF0A3EFF0A31207FB00000000900710E2
:100B74007401F0900710E0FFC394127480948050C5
:100B840051EF25E02483F582E43404F583E0FEA3E9
:100B9400E0FFC390047AE09F900479E09E5005EE54
:100BA400F0A3EFF0900710E025E02483F582E4340D
:100BB40004F583E0FEA3E0FFD3900478E09F900463
:100BC40077E09E4005EEF0A3EFF0900710E004F00C
:100BD40080A1E4900710F0900710E0C39412748091
:100BE4009480503F90047BE0F8A3E0F9A3E0FAA3DB
:100BF400E0FB900710E025E02483F582E43404F55B
:100C040083E0FEA3E0FFE4FCFDEB2FFFEA3EFEEDF4
:100C140039FDEC38FC90047B1207EF900710E004D8
:100C2400F080B4900477E0FEA3E0FFFBAA06E49012
:100C3400047BE0FCA3E0FDA3E0FEA3E0C39BFFEE86
:100C44009AFEED9400FDEC9400FCC006C0079004ED
:100C540079E0FEA3E0FFFBAA06E4D007D006C3EFC9
:100C64009BFFEE9AFEED9400FDEC9400FCA31207AA
:100C7400EF90047BE0FCA3E0FDA3E0FEA3E0FF789B
:100C8400041207DC90047B1207EF90047BE0FCA3C2
:100C9400E0FDA3E0FEA3E0FFE41203CD7466FBFADB
:100CA400F9783F1201AEC004C005C006C007900425
:100CB40081E0FCA3E0FDE41203D27BCD7ACC79CCB5
:100CC400783D1201AED003D002D001D0001200BD95
:100CD40012040B90047B1207EF90047BE0A3E0A3C3
:100CE400E0FFA3E0900481CFF0A3EFF0E4FF7E14D3
:100CF400FDFC90047BE0F8A3E0F9A3E0FAA3E0FB99
:100D04001206B1E47BFF7A0FF9F812073C90047FD6
:100D1400EEF0A3EFF030A410E49004B0F0900731AB
:100D2400F0A3F0900730F02220A4359004B0E064E2
:100D34000260037401F090047FE0FEA3E0FFC3941B
:100D44001CEE940C50079004B07402F022C3EF948C
:100D5400ACEE940D400A9004B0E06402700204F01A
:010D6400226C
:1031B40020A4030232827B017D167F01126DFF90F1
:1031C400047FE0FEA3E0FFD39468EE9410400F90D8
:1031D40004AF7401F09004AE7464F0023279C3EF6A
:1031E4009468EE941050069004AFE06017C3900406
:1031F40080E0940490047FE0941050799004AFE050
:1032040064017071C3900480E0940490047FE0949E
:103214001050099004AFE064017001F090047FE065
:10322400FEA3E0FFC3946BEE940E5007E49004AE4B
:10323400F08042C3EF94ADEE940E50089004AE7447
:1032440019F08031C3EF9420EE940F50089004AE2F
:103254007432F08020C3EF94EAEE940F5008900487
:10326400AE744BF0800FC3EF9468EE941050069048
:1032740004AE7464F09004AEE0FF120D652230A435
:0432840003023428E5
:10328800E49004AFF0FB7D167F01126DFF90047F80
:10329800E0FEA3E0FFD3943CEE940F4040900399E6
:1032A800E0FD7C0070099004AE7464F0023420EDF7
:1032B80064014C701FD3EF9450EE940F40169004A5
:1032C800AE7464F0E4900399F0A3F0A3F0A3F0A324
:1032D800F00234209004AE744BF002342090047F46
:1032E800E0FEA3E0FFD39479EE940E404290039958
:1032F8007401F0A3E0FD7C0070099004AE744BF0FB
:10330800023420ED64014C701DD3EF948DEE940EC1
:1033180040149004AE744BF0E490039AF0A3F0A329
:10332800F0A3F00234209004AE7432F002342090FE
:10333800047FE0FEA3E0FFD39410EE940E4040908B
:10334800039A7401F0A3E0FD7C0070099004AE7448
:1033580032F0023420ED64014C701BD3EF941AEE66
:10336800940E40129004AE7432F0E490039BF0A3E4
:10337800F0A3F00234209004AE7419F002342090C7
:10338800047FE0FEA3E0FFD394C8EE940D403A908A
:10339800039B7401F0A3E0FD7C0070089004AE74F8
:1033A80019F08074ED64014C7018D3EF94DEEE943C
:1033B8000D400F9004AE7419F0E490039CF0A3F054
:1033C8008056E49004AEF0804F90047FE0FEA3E0C6
:1033D800FFD394F8EE940C403490039C7401F0A34E
:1033E800E0FD7C0070069004AEF0802CED64014C8A
:1033F8007014D3EF940CEE940D400BE49004AEF0EF
:1034080090039DF08012E49004AEF0800B90039D31
:103418007401F0E49004AEF09004AEE0FF120D6584
:013428002281
:106E6F00900476E064017012900471E0FFA3E0A338
:106E7F00CFF0A3EFF0E4900476F0900471E0FEA35E
:036E8F00E0FF22FF
:09718000900473E0FEA3E0FF227D
:050D6500900713EFF000
:100D6A0020A403021004E07003020F9E24E770031C
:100D7A00020F3A24E77003020ED524E77003020E2D
:100D8A006E24E7600302118DD3900480E09468908A
:100D9A00047FE0941040347B017D16E4FF126DFF5E
:100DAA007B017D177F02126DFF7B017D177F031286
:100DBA006DFF7B017D177F01126DFF7B017D17E4BB
:100DCA00FF126DFF9004AF7401F022D3900480E00B
:100DDA00946890047FE0941050069004AFE0601D80
:100DEA00C3900480E0943C90047FE0940F40030297
:100DFA00118D9004AFE06401600302118D7B017DC7
:100E0A0016E4FF126DFF7B017D177F01126DFF7BD8
:100E1A00017D17E4FF126DFF7B017D177F03126DC1
:100E2A00FF90039FE004F0700690039EE004F090A8
:100E3A00039EE07004A3E06401700A7B017D177FC2
:100E4A0002126DFF2290039EE07004A3E064026028
:100E5A000302118DFB7D177F02126DFFE490039E42
:100E6A00F0A3F0227B017D16E4FF126DFFE4FB7D07
:100E7A00177F02126DFF7B017D17E4FF126DFF7B66
:100E8A00017D177F03126DFF90039FE004F0700647
:100E9A0090039EE004F090039EE07004A3E06401D6
:100EAA00700A7B017D177F01126DFF2290039EE07D
:100EBA007004A3E06402600302118DFB7D177F01B9
:100ECA00126DFFE490039EF0A3F0227B017D16E4ED
:100EDA00FF126DFFE4FB7D177F02126DFFE4FB7DBD
:100EEA00177F01126DFF7B017D177F03126DFF9043
:100EFA00039FE004F0700690039EE004F090039EC6
:100F0A00E07004A3E0640170097B017D17FF126D94
:100F1A00FF2290039EE07004A3E0640260030211C2
:100F2A008DFB7D17FF126DFFE490039EF0A3F02264
:100F3A0090039FE004F0700690039EE004F0E4FB47
:100F4A007D177F02126DFFE4FB7D177F01126DFF93
:100F5A00E4FB7D17FF126DFF7B017D177F03126D86
:100F6A00FF90039EE07004A3E0640170097B017D99
:100F7A0016FF126DFF2290039EE07004A3E0640244
:100F8A00600302118DFB7D16FF126DFFE490039E34
:100F9A00F0A3F02290039FE004F0700690039EE015
:100FAA0004F0E4FB7D177F02126DFFE4FB7D177FDF
:100FBA0001126DFFE4FB7D17FF126DFFE4FB7D1646
:100FCA00FF126DFF90039EE07004A3E06401700AB3
:100FDA007B017D177F03126DFF2290039EE0700450
:100FEA00A3E06402600302118DFB7D177F03126D7B
:100FFA00FFE490039EF0A3F0222230A40302118D95
:10100A00900713E070030210DF24E770030210B2A6
:10101A0024E7606724E7603524E7600302118D7BCB
:10102A00017D16E4FF126DFF7B017D177F02126DB1
:10103A00FF7B017D177F03126DFF7B017D177F0107
:10104A00126DFF7B017D17E4FF126DFF227B017D8C
:10105A0016E4FF126DFFE4FB7D177F02126DFF7B22
:10106A00017D177F03126DFF7B017D177F01126DD2
:10107A00FF7B017D17E4FF126DFF227B017D16E4E1
:10108A00FF126DFFE4FB7D177F02126DFF7B017D6E
:10109A00177F03126DFFE4FB7D177F01126DFF7B43
:1010AA00017D17E4FF126DFF7B017D16E4FF126DCF
:1010BA00FFE4FB7D177F02126DFF7B017D177F0323
:1010CA00126DFFE4FB7D177F01126DFFE4FB7D17B4
:1010DA00FF126DFF22D3900480E094F890047FE021
:1010EA00940C402CE4FB7D16FF126DFFE4FB7D1788
:1010FA007F02126DFF7B017D177F03126DFFE4FBF8
:10110A007D177F01126DFFE4FB7D17FF126DFF2231
:10111A0090039FE004F0700690039EE004F0E4FB65
:10112A007D16FF126DFFE4FB7D177F02126DFFE44F
:10113A00FB7D177F01126DFFE4FB7D17FF126DFF28
:10114A0090039EE07004A3E0640170137B017D1696
:10115A007F01126DFF7B017D177F03126DFF2290C5
:10116A00039EE07004A3E064027018FB7D167F0101
:10117A00126DFFE4FB7D177F03126DFFE490039E5F
:03118A00F0A3F0DF
:01118D00223F
:0D1CB8004106B60042067D000041067F0097
:0C7148007B017D027F02125363D2A12262
:1066620090068B7411F0A37401F0A3F090068CE0F5
:10667200FF90068BE02F04F40490068EF090068BB8
:10668200E0900681F090068CE0900682F090068DF4
:10669200E0900683F090068EE0900684F09006B3B8
:1066A200E070107B017A06798190068CE02403FD6C
:0466B2001269F8224F
:10660B0090068B7411F0A37401F0A3741EF0900626
:10661B008CE0FF90068BE02F241EF40490068EF086
:10662B0090068BE0900681F090068CE0900682F04D
:10663B0090068DE0900683F090068EE0900684F035
:10664B009006B3E070107B017A06798190068CE09E
:07665B002403FD1269F8227F
:03007B0002597CAB
:10597C00C0E0C0F0C083C082C0D075D000C000C0F1
:10598C0001C002C003C004C005C006C007C09130EE
:10599C00F86C9006B5E59AF09006B3E07025900689
:1059AC00B5E064167056FE7F0FFD7B017A06798F89
:1059BC001208529006B5E090068FF09006B3740171
:1059CC00F080399006B3E064017031A3E004F0A3D9
:1059DC00E0FF9006B4E0FE248FF582E43406F583F4
:1059EC00EFF0900690E02402FDE433FCEE7E00B56F
:1059FC00050AEEB504069006B37402F0C2F8D09115
:105A0C00D007D006D005D004D003D002D001D000EE
:0B5A1C00D0D0D082D083D0F0D0E03298
:105B5C009006B3E06402705DA3E0FF126E2690061F
:105B6C00B4E0248FF582E43406F583E06F70387866
:105B7C009E7C067D017B017A06798FFE7F0F1205D4
:105B8C005CE49006B3F09006A1E0FEA3E07C002458
:105B9C0000FFEC3E9006B1F0A3EFF0E49006B4F0F9
:105BAC0090067DF0A3F022E49006B3F0A3F09006EB
:105BBC007DF0A3F0229006B3E0602A90067EE0040C
:105BCC00F0700690067DE004F0D390067EE094E839
:105BDC0090067DE09403400DE49006B3F0A3F090A2
:055BEC00067DF0A3F0AE
:015BF1002291
:026E2600A907BA
:106E2800E4FFFEFDFCEDC3995013748F2DF582E449
:106E38003406F583E02FFFE43EFE0D80E8EFF4040E
:026E4800FCFF4D
:016E4A002225
:0518D800900713EFF082
:1018DD009006B6E064016003021BEA90067FE00407
:1018ED00F0E0D39402748094804003021BCEA3E0F9
:1018FD00240AF582E43406F583E0FB7A007C037D4F
:10190D00E8FF7E00120630900717EFF07C037DE8AC
:10191D00AF037E001206307E007F64CFCDCFCECCDC
:10192D00CE120630900716EFF0900680E0FF240AE5
:10193D00F582E43406F583E0FE75F06484E5F07518
:10194D00F00A84900715F0EE75F00A84900714E5FF
:10195D00F0F0740A2FF582E43406F583E0C3940A9F
:10196D00748094804003021A44900714E0FDE4FB58
:10197D007F04124872E4FB7D02FF126DFFE4FB7DD4
:10198D00027F01126DFFE4FB7D027F02126DFFE409
:10199D00FB7D027F03126DFFE4FB7D017F01126D64
:1019AD00FFE4FB7D017F02126DFFE4FB7D017F03F0
:1019BD00126DFFE4FB7D04FF126DFFE4FB7D047FE0
:1019CD0001126DFFE4FB7D047F02126DFFE4FB7DD0
:1019DD00047F03126DFFE4FB7D03FF126DFFE4FB3B
:1019ED007D037F01126DFFE4FB7D037F02126DFF0E
:1019FD00E4FB7D037F03126DFFE4FB7D06FF126D9B
:101A0D00FFE4FB7D067F01126DFFE4FB7D067F0287
:101A1D00126DFFE4FB7D067F03126DFFE4FB7D1865
:101A2D007F01126DFFE4FB7D187F02126DFFE4FB59
:101A3D007D187F03126DFF900680E0240AF582E485
:101A4D003406F583E0FF7E00C3940A7480948050C1
:101A5D0003021B01EF9464748094804003021B0108
:101A6D00900714E0FDE4FB7F04124872900715E027
:101A7D00FDE4FB7F03124872E4FB7D02FF126DFF54
:101A8D00E4FB7D027F01126DFFE4FB7D027F0212FC
:101A9D006DFFE4FB7D027F03126DFFE4FB7D017F93
:101AAD0001126DFFE4FB7D017F02126DFFE4FB7DF2
:101ABD00017F03126DFFE4FB7D04FF126DFFE4FB5C
:101ACD007D047F01126DFFE4FB7D047F02126DFF2B
:101ADD00E4FB7D047F03126DFFE4FB7D037F0112A8
:101AED006DFFE4FB7D037F02126DFFE4FB7D037F41
:101AFD0003126DFF900680E0240AF582E43406F5AA
:101B0D0083E0FF7E00C3946474809480406BEF94F7
:101B1D00E8748094835062900714E0FDE4FB7F0429
:101B2D00124872900715E0FDE4FB7F031248729096
:101B3D000716E0FDE4FB7F02124872E4FB7D02FF15
:101B4D00126DFFE4FB7D027F01126DFFE4FB7D0250
:101B5D007F02126DFFE4FB7D027F03126DFFE4FB3C
:101B6D007D017F01126DFFE4FB7D017F02126DFF90
:101B7D00E4FB7D017F03126DFF900680E0240AF5E2
:101B8D0082E43406F583E0C394E874809483404D79
:101B9D00900717E0FDE4FB7F01124872900715E0F6
:101BAD00FDE4FB7F03124872900716E0FDE4FB7F16
:101BBD0002124872900714E0FDE4FB7F0412487294
:101BCD0022E490067FF0A3E004F0E0D39418748033
:0D1BDD0094804009E49006B6F0900680F078
:011BEA0022D8
:097189009006B1E0FEA3E0FF2234
:106F70009004B0E014600D1460102402700ED2A1D1
:0D6F800012666222D2A112666222C2A12214
:1064A900900714EBF0A3EAF0A3E9F0A3ECF0A3ED55
:0164B900F0F2
:1064BA00E4FF7EFF90071774FFF5F012069B45F084
:1064CA006033900714E0FBA3E475F00112069BA960
:1064DA00F0FA1205826EFEE4FFEFC394087480940A
:1064EA008050D1EE30E70725E06431FE8004EE25C6
:0764FA00E0FE0F80E4AF0695
:016501002277
:1049BA00E4FDEF7807CEC313CE13D8F97807C333D3
:1049CA00CE33CED8F9FF900718EEF0A3EFF0E4FD4E
:1049DA00900717E0FFEDC39F502DEDC39F501912AA
:1049EA000582FF74192DF582E43403F583EFF07420
:1049FA000129F9E43AFA800C74192DF582E434039A
:104A0A00F583E4F00D80C9900718E0FEA3E0F5A64F
:104A1A00EEF5A775AEFFE4F591A2AF9205C2AF75A8
:104A2A00C7AA75C755439F01A20592AFF591A2AFD8
:104A3A009205C2AF75C7AA75C75543A501A20592CB
:104A4A00AF75AF22F591A2AF9205C2AF75C7AA752D
:104A5A00C75543A401A20592AFF591A2AF9205C230
:104A6A00AF75C7AA75C755439F01A20592AFF591C5
:104A7A00A2AF9205C2AF75C7AA75C75543A501A2D1
:104A8A000592AF75AF21FD900717E0FFEDC39F5068
:104A9A0031A3E0FEA3E02DF5A6EEF5A774192DF5D6
:104AAA0082E43403F583E0F5AEE4F591A2AF920512
:104ABA00C2AF75C7AA75C75543A401A20592AF0D27
:104ACA0080C5E4F591A2AF9205C2AF75C7AA75C7B2
:104ADA005553A5FEA20592AFF591A2AF9205C2AFBA
:0D4AEA0075C7AA75C755539FFEA20592AF70
:014AF700229C
:0B41600090070FEDF0EF60030242DC5F
:10416B0090070FE060030241F3900200E0FF7E0036
:10417B00700604F0A3F0800CEF64014E7006900201
:10418B0000F0A3F07B017A0279017D057C001264BB
:10419B00A9900206EFF0C2AF7B017A02790190077A
:1041AB00177406F07F807EFF1249BA7A0279079066
:1041BB000719E4F0A37406F07F807EFF12626C7B1C
:1041CB00017A0279077D057C001264A990020CE04C
:1041DB006F60137B017A0279019007177406F07FE9
:1041EB00807EFF1249BAD2AF90070FE064016003E3
:1041FB000242DC127189EEFFC00712723D740D2F63
:10420B00F582E43402F583D0E0F0127189C0071215
:10421B00723D740E2FF582E43402F583D0E0F01278
:10422B007243900289EFF012723D90028AEFF07B9D
:10423B00017A02790D7D7E12675A900710EEF0A37A
:10424B00EFF0900710E0FCA3E0FDEC90028BF0A3E5
:10425B00EDF0C2AF900200E075F080A42480FFE582
:10426B00F034FEFE7B017A02790D9007177480F013
:10427B001249BA900200E075F080A42480FFE5F0AB
:10428B0034FEFE7A02798D900719E4F0A37480F066
:10429B0012626C7B017A02798D7D7E12675A9003D4
:1042AB0017EEF0A3EFF090030CE06F7001EE601FC0
:1042BB00900200E075F080A42480FFE5F034FEFE50
:1042CB007B017A02790D9007177480F01249BAD2EC
:0142DB00AF33
:0142DC0022BF
:1024A900C2AF7B017A027907900719E4F0A3740699
:1024B900F07F807EFF12626C7B017A0279077D05CD
:1024C9007C001264A990020CE06F607B7B017A02A8
:1024D9007907900719E4F0A37406F07F807EFF1254
:1024E900626C7B017A0279077D057C001264A990F0
:1024F900020CE06F6017E4900201F0A3F0A3F0A3CF
:10250900F0A3F0900201E0900200F08072900207BF
:10251900E0900201F0900208E0900202F0900209B6
:10252900E0900203F090020AE0900204F090020B9E
:10253900E0900205F090020CE0900206F090020192
:10254900E0900200F08038900207E0900201F090DC
:102559000208E0900202F0900209E0900203F09074
:10256900020AE0900204F090020BE0900205F0905C
:10257900020CE0900206F0900201E0900200F09057
:102589000200E075F080A42480FFE5F034FEFE7BB4
:10259900017A02798D900719E4F0A37480F0126230
:1025A9006C7B017A02798D7D7E12675A900317EE52
:1025B900F0A3EFF090030BE0FF900317E4F0A3EF13
:1025C900F0E0F8E4F0E8900317F090030CE0FF90D6
:1025D9000318E02FF0900317E03400F07B017A0232
:1025E900798D7D7E12675A900317E06E7003A3E020
:1025F9006F70030226FA900200E075F080A424802F
:10260900FFE5F034FEFE7B017A02798D900719E42B
:10261900F0A37480F012626C90030BE0FF90031733
:10262900E4F0A3EFF0E0F8E4F0E8900317F090038A
:102639000CE0FF900318E02FF0900317E03400F04E
:102649007B017A02798D7D7E12675A900317E06EBD
:102659007003A3E06F602AE4900713F0900713E07A
:10266900FFC39480748094804003022768740D2FFF
:10267900F582E43402F583E4F0900713E004F08076
:10268900DBE4900713F0900713E0C39480748094FF
:10269900805021E0FF248DF582E43402F583E0FEC9
:1026A900740D2FF582E43402F583EEF0900713E000
:1026B90004F080D2900289E0FF90070FF090028A1F
:1026C900E0900710F0E0FE240DF582E43402F58372
:1026D900E0900711F0740E2EF582E43402F583E0E0
:1026E900900712F0127249900710E0FF12724F80A2
:1026F9006EE4900713F0900713E0C39480748094FC
:10270900805021E0FF248DF582E43402F583E0FE58
:10271900740D2FF582E43402F583EEF0900713E08F
:1027290004F080D2900289E0FF90070FF090028AAE
:10273900E0900710F0E0FE240DF582E43402F58301
:10274900E0900711F0740E2EF582E43402F583E06F
:10275900900712F0127249900710E0FF12724FD2DF
:01276900AFC0
:01276A00224C
:105E7900E4FDEDC3946074809480505A740D2DF53F
:105E890082E43402F583E0FF900711E4F0A3EFF018
:105E9900E0F8E4F0E8900711F0740E2DF582E4348F
:105EA90002F583E0FF900712E02FF0900711E0342C
:105EB90000F0E0FEA3E0FFC3900710E09F90070FFA
:105EC900E09E500E900711E0A3E090070FEEF0A3BB
:105ED900EFF00D0D809C90070FE0FEA3E0FFE4FCBE
:075EE900FD90030F1207EF0B
:015EF000228F
:103CD600E4900710F0A3F0A3F0A3F0A31207FB00F3
:103CE600000000900289E06003023DB890070FF0E3
:103CF60090028AE02402FFE433FE90070FE0C39FA0
:103D0600EE6480F8748098506AE0FD240DF582E434
:103D16003402F583E0FF900712E4F0A3EFF0E0F839
:103D2600E4F0E8900712F0740E2DF582E43402F503
:103D360083E0FF900713E02FF0900712E03400F0C5
:103D4600900714E0F8A3E0F9A3E0FAA3E0FB9007DC
:103D560012E0FEA3E0FFE4FCFDEB2FFFEA3EFEEDE2
:103D660039FDEC38FCA31207EF90070FE02402F0B0
:103D7600023CF6E47F02FEFDFC900714E0F8A3E0A7
:103D8600F9A3E0FAA3E0FB1206B1C006C007900251
:103D96008AE02402FFE433FEAB07FA3395E0F9F834
:103DA600D007D00612073C900710EEF0A3EFF00202
:103DB6003E52E490070FF090070FE0C394607480C2
:103DC60094805069E0FD240DF582E43402F583E029
:103DD600FF900712E4F0A3EFF0E0F8E4F0E89007B4
:103DE60012F0740E2DF582E43402F583E0FF90079D
:103DF60013E02FF0900712E03400F0900714E0F87B
:103E0600A3E0F9A3E0FAA3E0FB900712E0FEA3E02B
:103E1600FFE4FCFDEB2FFFEA3EFEED39FDEC38FC3E
:103E2600A31207EF90070FE02402F0808AE47B30AC
:103E3600FAF9F8900714E0FCA3E0FDA3E0FEA3E086
:103E4600FF12073C900710EEF0A3EFF0900710E08A
:0D3E5600FEA3E0FFE4FCFD9003131207EF54
:013E6300223C
:0D712E0090030FE0A3E0A3E0FEA3E0FF222A
:0D713B00900313E0A3E0A3E0FEA3E0FF2219
:106D56007591024384085385F77591024397087528
:106D6600910143BD4053BEBF7591014397409006C4
:0C6D7600F17401F0A3F0E49006F4F022A8
:101EE8007591029006EBE5A7F0E0F4FF1313135485
:101EF80001FFF0E4F591AD07E5B1F0E0F4FEC4139D
:101F08005402F0E02FF0E060469006E4E004F0E0D0
:101F1800D3940574809480403B9006EBE060299050
:101F280006E8E064017005A304F080069006E874F2
:101F380001F0E49006EDF09006EBE0A3F0E49006E3
:101F4800E4F09006E6F0800CE49006E4F08005E406
:101F58009006E4F09006E8E0640160030221C09076
:101F680006E5E004F09006ECE024FE70030220A0F1
:101F78000460030221C09006EBE0FF6003022065C5
:101F88009006E5E0D394C874809480400374C9F047
:101F98009006EDE0640170569006E6E004F0E0D3A8
:101FA80094647480948050030221C0A3E0FD7C00F7
:101FB800640170089006EE7402F0801AED64024C19
:101FC80070089006EE7403F0800CED64034C700604
:101FD8009006EE7404F0E49006E7F09006E6F090C0
:101FE80006E8F09006EDF09006E9F00221C09006B0
:101FF800E5E0FD7C00C394C874809480501D900671
:10200800E9E070179006F8E070119006ED04F09082
:1020180006E7F0E49006E5F00221C0C3ED94C8ECB1
:102028006480948050259006E9E06401701D900654
:10203800F8E070179006ED04F09006E7E004F0E48D
:102048009006E5F09006E9F00221C0E49006F8F069
:102058009006E5F09006E8F0A3F00221C0EF6401D5
:1020680060030221C09006E5E0D394C87480948090
:1020780050030221C09006EE7405F0E49006E5F0E6
:102088009006E9F09006E6F09006EDF09006E6F08E
:102098009006F804F00221C09006EBE0FF6003020E
:1020A80021889006E5E0D394C87480948040037436
:1020B800C9F09006EDE0640670569006E6E004F07C
:1020C800E0D394647480948050030221C0A3E0FD9F
:1020D8007C00640170089006EE7407F0801AED64C5
:1020E800024C70089006EE7408F0800CED64034C06
:1020F80070069006EE7409F0E49006E7F09006E6A4
:10210800F09006E8F09006EDF09006E9F00221C0A4
:102118009006E5E0FD7C00C394C874809480501F4D
:102128009006E9E070199006F8E070139006ED74D7
:1021380006F09006E77401F0E49006E5F08079C3B4
:10214800ED94C8EC6480948050259006E9E0640121
:10215800701D9006F8E070179006ED7406F0900672
:10216800E7E004F0E49006E5F09006E9F08049E441
:102178009006F8F09006E5F09006E8F0A3F08038B5
:10218800EF640270339006E5E0D394C874809480BD
:1021980040269006F8E070209006EE740AF0E4906D
:1021A80006E5F09006E9F09006E6F09006EDF0906E
:1021B80006E6F09006F804F09006EDE0640170067B
:0621C8009006E6E004F0C1
:0121CE0022EE
:103B4500121EE89006EEE0FF7E006015E490073156
:103B5500F0A3F0900730E064017006F09006EEF0F7
:103B650022EF64024E7009900731F0A3F0023CD0B9
:103B75009006EEE0FF7E0064037033900731F0A3FA
:103B8500F09006F5E0FD7C00700504F0023CD0EDF8
:103B950064014C70099006F57402F0023CD0ED64A6
:103BA500024C6003023CD09006F5F0023CD0EF6475
:103BB500044E700E900731F0A3F09006F604F00263
:103BC5003CD09006EEE0FF7E00640570249007313E
:103BD500F0A3F09006F3E0FD7C00700504F0023CD4
:103BE500D0ED64014C6003023CD09006F3F0023C3A
:103BF500D0EF64074E7024900731F0A3F09006F2E1
:103C0500E0FF7E00700504F0023CD0EF64014E60D9
:103C150003023CD09006F2F0023CD09006EEE0FFA5
:103C25007E0064087072900731F0A3F09006F4E00E
:103C3500B408004003023CD0903C44F828287302A5
:103C45003C5C023C64023C6C023C74023C7C023CE1
:103C550084023C8C023C949006F47401F0806C90D4
:103C650006F47402F080649006F47403F0805C90AE
:103C750006F47404F080549006F47405F0804C90BA
:103C850006F47406F080449006F47407F0803CE472
:103C95009006F4F080358033EF64094E7008900784
:103CA50031F0A3F080259006EEE0640A701D9007C0
:103CB50031F0A3F09006F1E0FF7E00700404F0807F
:103CC5000AEF64014E70049006F1F0E49006EEF000
:013CD50022CC
:0671EF009006F1E0FF2212
:0671F5009006F2E0FF220B
:0671FB009006F3E0FF2204
:067201009006F4E0FF22FC
:067207009006F5E0FF22F5
:06720D009006F9E0FF22EB
:067213009006F6E0FF22E8
:06721900E49006F6F022ED
:0871AD009006F7E04401F02216
:0871B5009006F7E054FEF02201
:104C330075910253EB0F43EB5075910253EBF04325
:104C4300EB0575910253EE0F43EE5075910253F746
:104C53000F43F75075910253FCF043FC0275910228
:104C630053FC0F43FC2075910253E9F043E90275AD
:104C7300910253E90F43E92075910253F2F043F295
:104C83000275910253F5F043F50275910253F50F46
:104C930043F5207591025394F043940275910253A6
:104CA300940F4394207591025395F04395027591A7
:104CB3000253950F43952075910253F6F043F60284
:104CC30075910253F60F43F62075910253F7F043A3
:104CD300F70275910253EDF043ED0275910253ED26
:104CE3000F43ED2075910253EEF043EE02759102EE
:104CF30053F10F43F12075910253F1F043F1027523
:104D0300910253FF0F43FF2075910253FFF043FFBE
:104D1300027591025392F043920275910253920FDE
:104D23004392207591025393F04393027D027F01D6
:104D3300126ED59007127420F0E4A3F07B307D014E
:104D43007F0112689BE4FD7F4012003E1271767F63
:054D530001126AB42208
:06721F00E4FF126AB42234
:0748720090071DEBF0A90502
:10487900E4FEFDEF14B40B00506B90489175F00302
:10488900A4C58325F0C583730248B20248B802481B
:10489900BE0248C40248CA0248D00248D60248DCCF
:1048A9000248E20248E80248EC7E027D0180367E39
:1048B900047D0380307E067D18802A7E087D07806E
:1048C900247E0B7D0A801E7E0D7D0C80187E1E7D48
:1048D9000E80127E127D11800C7E147D1380067D60
:1048E9000A80027D11759103AF068FFBE9B40A00B6
:1048F9005055904902F82828730249200249250297
:10490900492A02492F02493402493902493E0249DA
:104919004302494802494D75FC0F802B75FC0680FE
:104929002675FC0B802175FC0F801C75FC06801711
:1049390075FC0D801275FC0D800D75FC07800875DE
:10494900FC0F800375FC0F759103AF058FFBE9B46C
:104959000A005055904964F828287302498202498F
:104969008702498C02499102499602499B0249A052
:104979000249A50249AA0249AF75FC0A802B75FCB8
:1049890000802675FC0C802175FC04801C75FC06D2
:10499900801775FC06801275FC0E800DE4F5FC800D
:1049A9000875FC0E800375FC0690071DE0FF80006A
:0149B90022DB
:10380A00E4FB7D09FF126DFFE4FB7D15FF126DFFDE
:10381A00E4FB7D157F01126DFFE4FB7D1FFF126D36
:10382A00FFE4FB7D1F7F01126DFFE4FB7D1F7F021A
:10383A00126DFFE4FB7D1F7F03126DFFE4FB7D1910
:10384A00FF126DFFE4FB7D0AFF126DFFE4FB7D0AA8
:10385A007F01126DFFE4FB7D0A7F02126DFFE4FB1C
:10386A007D0A7F03126DFFE4FB7D0BFF126DFFE4FF
:10387A00FB7D0B7F01126DFFE4FB7D0B7F02126D56
:10388A00FFE4FB7D0B7F03126DFFE4FB7D0CFF124F
:10389A006DFFE4FB7D0C7F01126DFFE4FB7D0C7F65
:1038AA0002126DFFE4FB7D0C7F03126DFFE4FB7DCA
:1038BA000DFF126DFFE4FB7D0D7F01126DFFE4FB2E
:1038CA007D0D7F02126DFFE4FB7D0D7F03126DFFFC
:1038DA00E4FB7D0EFF126DFFE4FB7D0E7F01126D8E
:1038EA00FFE4FB7D0E7F02126DFFE4FB7D0E7F037A
:1038FA00126DFFE4FB7D1EFF126DFFE4FB7D1E7F50
:10390A0001126DFFE4FB7D1E7F02126DFFE4FB7D59
:10391A001E7F03126DFFE4FB7D11FF126DFFE4FBB6
:10392A007D117F01126DFFE4FB7D117F02126DFF95
:10393A00E4FB7D117F03126DFFE4FB7D12FF126D24
:10394A00FFE4FB7D127F01126DFFE4FB7D127F0213
:10395A00126DFFE4FB7D127F03126DFFE4FB7D1302
:10396A00FF126DFFE4FB7D137F01126DFFE4FB7D07
:10397A00137F02126DFFE4FB7D137F03126DFFE4D8
:10398A00FB7D14FF126DFFE4FB7D147F01126DFFB6
:10399A00E4FB7D147F02126DFFE4FB7D147F0312AA
:0339AA006DFF228C
:0E118E00900713EEF0A3EFF0A3ECF0A3EDF04A
:10119C00E490071CF01271FBEF70030212811271C4
:1011AC00FBEF6401600302128112722BEF600302E9
:1011BC001250900713E0FCA3E0FDE41203D27B660F
:1011CC007A6679E6783F1201AEE4FBFA79A07843AF
:1011DC00120354503490071C7401F0900713E0FC78
:1011EC00A3E0FDE41203D27B667A6679E6783F12BF
:1011FC0001AEE4FBFA79A078C31200BD12040B9087
:10120C000713EEF0A3EFF0806CE490071CF090074E
:10121C0013E0FCA3E0FDE41203D27B667A6679E668
:10122C00783F1201AEA804A905AA06AB07E4FFFE9D
:10123C007DA07C431200B912040B900713EEF0A3AF
:10124C00EFF08031E490071CF0900713E0FCA3E072
:10125C00FDE41203D27B667A6679E6783F1201AE22
:10126C00E4FBFA79A078431200BD12040B9007132B
:10127C00EEF0A3EFF0900713E0FAA3E0FB7C037D04
:10128C00E8FFAE02120630900718EFF07C037DE801
:10129C00AF03AE021206307E007F64CFCDCFCECC32
:1012AC00CE120630900717EFF0900713E0FEA3E084
:1012BC00FF7C007D641206307E007F0ACFCDCFCE3E
:1012CC00CCCE120630AA07900713E0FEA3E0FF7CF9
:1012DC00007D0A120630AB05A3E0FEA3E0FF7C0004
:1012EC007D6412063090071BEFF0900715E0FEA30B
:1012FC00E0FF7C007D641206307E007F0ACFCDCFEC
:10130C00CECCCE12063090071AEFF0900715E0FE07
:10131C00A3E0FF7C007D0A120630900719EDF0AFB8
:10132C0003AD077B0C7F07124872AF02AD077F0637
:10133C001248721271FBEF706012722BEF7034C393
:10134C00900714E09464900713E0940050137B0111
:10135C007D0A7F02126DFFE4FB7D0CFF126DFF8096
:10136C00127B017D0CE4FF126DFFE4FB7D0A7F0212
:10137C00126DFF7B017D0EE4FF126DFF7B017D1F63
:10138C007F02126DFF7B017D1F7F03126DFFE4FB5B
:10139C007D1F7F01126DFF806090071CE06401705F
:1013AC0034C3900714E09464900713E09400501336
:1013BC007B017D0A7F02126DFFE4FB7D0CFF126D39
:1013CC00FF80127B017D0CE4FF126DFFE4FB7D0AB4
:1013DC007F02126DFF7B017D0EE4FF126DFF7B011E
:1013EC007D1F7F02126DFF7B017D1F7F01126DFF40
:1013FC00E4FB7D1F7F03126DFFC3900714E0946420
:10140C00900713E09400400C900717E0FD7B0C7FD5
:10141C0005124872C3900714E094E8900713E09407
:10142C000340097B017D0AE4FF126DFF7B017D0EF9
:10143C00E4FF126DFF900719E0FDE4FB7F091248F1
:10144C007290071AE0FDE47F08124872C3900716E9
:10145C00E09464900715E0940040080B7D11E4FFC4
:10146C00126DFF7B017D13E4FF126DFF900713E0FB
:10147C00FEA3E0FFD394B4EE94004042D3EF941853
:10148C00EE94015039A3E0FEA3E0FFC39428EE9440
:10149C0000402BD3EF9446EE940050227B017D0943
:1014AC00E4FF126DFFE4FB7D15FF126DFFE4FB7D85
:1014BC001FFF126DFF7B017D157F01126DFF9007E1
:1014CC0013E0FEA3E0FFD39478EE94004009D3EF31
:1014DC0094B4EE9400403DD3EF9418EE940140097F
:1014EC00D3EF9440EE9401402B900715E0FEA3E05F
:1014FC00FFD39419EE94004009D3EF9427EE940097
:10150C004012D3EF9446EE9400402BD3EF9455EE5B
:10151C0094005022E4FB7D09FF126DFFE4FB7D1566
:10152C00FF126DFF7B017D157F01126DFF7B017D2D
:10153C001FE4FF126DFF900713E0FEA3E0FFD394AE
:10154C0078EE9400401FD3EF9440EE94015016A314
:10155C00E0FEA3E0FF9419EE94004009D3EF9455FC
:10156C00EE94004022E4FB7D09FF126DFF7B017DB0
:10157C0015E4FF126DFFE4FB7D1FFF126DFF7B0175
:07158C007D157F01126DFFC8
:011593002235
:0E3E640090070FEEF0A3EFF0A3ECF0A3EDF04B
:103E72009004B0E0FF7E0064017008900730E064B7
:103E8200016006EF64024E7006E4FF126AB4221269
:103E92007255EF704D900765E004F070069007646C
:103EA200E004F0D3900765E09402900764E0940088
:103EB200501390070FE0FEA3E0FFA3E0FCA3E0FD98
:103EC20012118E8036D3900765E09404900764E067
:103ED2009400500512380A8022E4900764F0A3F09F
:103EE2008019127255EF6401701190070FE0FEA362
:103EF200E0FFA3E0FCA3E0FD12118E900764E070E6
:103F020004A3E0640270097B01FDFF126DFF803D96
:103F1200900764E07004A3E0640470097B01FDFF74
:103F2200126DFF8028900764E07004A3E0640670BD
:103F3200097B01FDFF126DFF8013900764E070049E
:103F4200A3E0640870077B01FDFF126DFF7B01E4B3
:103F5200FDFF126DFFE4FBFD7F01126DFFE4FBFD2F
:103F62007F02126DFFE4FBFD7F03126DFF127207E9
:103F72001218D81271EFEF7009FB7D07FF126DFF67
:103F820080101271EFEF640170087B017D07FF1250
:103F92006DFF1271F5EF7009FB7D18FF126DFF8046
:103FA200101271F5EF640170087B017D18FF126D2C
:103FB200FFE4FB7D01FF126DFF7B017D157F021285
:103FC2006DFF7B017D157F03126DFF7B017D167FE7
:103FD20002126DFF7B017D167F03126DFF1231B459
:013FE20022BC
:101CC50041073000420731000041072F0042072A33
:061CD500000041072E0093
:10550D007B017DB07F051253637D087F021239AD9B
:10551D0075910253EC0F43ECC075910153B9F743EC
:10552D00BA08E4900713F0A3F07B567A04FD7F02CE
:10553D00124F9475910243C4407D08E4FF1260B987
:10554D0075910253FB0F43FBD075910153B1DF43AE
:10555D00B2209007131207FB00000456900717E4C2
:10556D00F0A37464F0E4FBFDFF122F3F759102531D
:10557D00FBF043FB0D75910153B1EF43B210900752
:10558D00131207FB00000456900717E4F0A3746490
:10559D00F0E4FBFD7F01122F3F75910253EAF043BA
:1055AD00EA0C75910153C2BF43C340900713120714
:1055BD00FB00000456900717E4F0A37464F0E4FBBD
:1055CD00FD7F05122F3F75910253C47F1271D322B7
:106E9200C09175910253C47FE4900713F0A3F07B75
:106EA200567A04FD7F02124F9475910243C480D03A
:026EB20091222B
:105C790090072BE004F0700690072AE004F0C39027
:105C8900072BE0943290072AE09400504090072DAA
:105C9900E004F0700690072CE004F0C09190072C06
:105CA900E0FEA3E0FFC374B09FFB74049EFA900763
:105CB90013E4F0A37432F0E4FD7F02124F9475915E
:105CC9000243C44075910243C480D09122C3900716
:105CD9002BE0946490072AE09400500BE490072C81
:105CE900F0A3F0126E9222E490072CF0A3F0900733
:045CF9002AF0A3F0FA
:015CFD002284
:05527F00900720EFF094
:1052840090072FE064016003025362127189D3EF27
:1052940094E8EE9403502C90072EE004F0E0FF64B1
:1052A400017009F59153B14F43B12022900720E0DA
:1052B400FEEFD39E5007E4F59153B14F22E49007DB
:1052C4002EF022127189D3EF9478EE9405502C902D
:1052D400072EE004F0E0FF64017009F59153B14F2B
:1052E40043B13022900720E0FEEFD39E5007E4F54F
:1052F4009153B14F22E490072EF022127189D3EF1B
:105304009408EE9407502C90072EE004F0E0FF641C
:10531400017009F59153B14F43B11022900720E079
:10532400FEEFD39E5007E4F59153B14F22E490076A
:105334002EF02290072EE004F0E0FF64017009F5DE
:105344009153B14F43B11022900720E0FEEFD39E5A
:0E5354005007E4F59153B14F22E490072EF07C
:015362002228
:104456009004B0E01470030244FE1470030245A7F2
:10446600240260030245B5E490072FF01271EFEFC6
:1044760064017050127189D3EF94E8EE9403500BE7
:10448600E4F59153B14F43B1208044127189D3EFC3
:104496009478EE9405500BE4F59153B14F43B13047
:1044A600802D127189D3EF9408EE9407500BE4F532
:1044B6009153B14F43B1108016E4F59153B14F4378
:1044C600B110800B1271EFEF7005F59153B14F12D9
:1044D6007189D3EF9408EE940740191271F5EF70C5
:1044E60004126E92221271F5EF640160030245C256
:1044F600125C7922126E92221271EFEF6401706CD7
:10450600C3900732E094E8900731E09403400890A6
:10451600072F7401F08064E490072FF0127189D39D
:10452600EF94E8EE9403500BE4F59153B14F43B189
:10453600208048127189D3EF9478EE9405500BE4ED
:10454600F59153B14F43B1308031127189D3EF9455
:1045560008EE9407500BE4F59153B14F43B1108028
:104566001AE4F59153B14F43B110800F1271EFEF7A
:10457600700990072FF0F59153B14F127189D3EF5F
:104586009408EE940740161271F5EF7004126E92BD
:10459600221271F5EF64017023125C7922126E9279
:1045A60022E490072FF0F59153B14F126E9222E458
:0D45B60090072FF0F59153B14F126E922235
:10276B0090070FEFF0C0911271DA90070FE0B408E9
:10277B00004003022A19902788F82828730227A003
:10278B000227F302284002288D0228DA02292A02A6
:10279B00297A0229CC9007131207FB0000045690EC
:1027AB000717E4F0A37464F0E4FBFDFF122F3F90D6
:1027BB0007131207FB00000456900717E4F0A374ED
:1027CB0064F0E4FBFD7F01122F3F9007131207FB10
:1027DB0000000456900717E4F0A37464F0E4FBFDCB
:1027EB007F05122F3F022A199007131207FB0000D7
:1027FB000456E4900717F0A3F0FBFDFF122F3F9058
:10280B0007131207FB00000456E4900717F0A3F020
:10281B00FBFD7F01122F3F9007131207FB000004F3
:10282B0056900717E4F0A37464F0E4FBFD7F0512E8
:10283B002F3F022A199007131207FB000004569032
:10284B000717E4F0A37464F0E4FBFDFF122F3F9035
:10285B0007131207FB00000456E4900717F0A3F0D0
:10286B00FBFD7F01122F3F9007131207FB000004A3
:10287B0056E4900717F0A3F0FBFD7F05122F3F02E4
:10288B002A199007131207FB00000456E490071750
:10289B00F0A3F0FBFDFF122F3F9007131207FB0075
:1028AB00000456900717E4F0A37464F0E4FBFD7F7B
:1028BB0001122F3F9007131207FB00000456E49000
:1028CB000717F0A3F0FBFD7F05122F3F022A19908B
:1028DB0007131207FB00000456900717E4F0A374CC
:1028EB0064F0E4FBFDFF122F3F9007131207FB0070
:1028FB00000456E4900717F0A3F0FBFD7F01122FA5
:10290B003F9007131207FB00000456900717E4F0E3
:10291B00A37464F0E4FBFD7F05122F3F022A19908C
:10292B0007131207FB00000456E4900717F0A3F0FF
:10293B00FBFDFF122F3F9007131207FB00000456FD
:10294B00900717E4F0A37464F0E4FBFD7F01122FF2
:10295B003F9007131207FB00000456900717E4F093
:10296B00A37464F0E4FBFD7F05122F3F022A19903C
:10297B0007131207FB00000456900717E4F0A3742B
:10298B0046F0E4FBFDFF122F3F9007131207FB00ED
:10299B00000456900717E4F0A37414F0E4FBFD7FDA
:1029AB0001122F3F9007131207FB000004569007EC
:1029BB0017E4F0A37464F0E4FBFD7F05122F3F8056
:1029CB004D9007131207FB00000456900717E4F015
:1029DB00A37464F0E4FBFDFF122F3F900713120763
:1029EB00FB00000456900717E4F0A37464F0E4FBBB
:1029FB00FD7F01122F3F9007131207FB00000456B7
:102A0B00E4900717F0A3F0FBFD7F05122F3F127127
:042A1B00D3D0912261
:1066B600C0911271DA9007131207FB00000456E42A
:1066C600900717F0A3F0FBFDFF122F3F9007131260
:1066D60007FB00000456E4900717F0A3F0FBFD7FCC
:1066E60001122F3F9007131207FB00000456E49097
:1066F6000717F0A3F0FBFD7F05122F3F1271D3D0D1
:026706009122DE
:106708009004B0E014600E146040240270401272CD
:106718000112276B22900732E004F07006900731CF
:10672800E004F0D3900732E094E8900731E0940356
:1067380040117403F0A374E8F09007307401F0126C
:1067480066B62212720112276B221266B6221266F0
:02675800B62267
:041CDB004106FB00C3
:06722500E4900704F022D2
:0100B200222B
:1054380043C02053C0F7E5C020E31690070C740161
:10544800F0A3E0640170EF90070CF0A3F01200B233
:1054580022E490070CF0A3F0AFBDEF6408600312DC
:1054680000B253C0DF75BCE053C0F7E5C020E316B7
:1054780090070C7401F0A3E0640170EF90070CF042
:10548800A3F01200B222E490070CF0A3F0AFBDEF36
:10549800641860031200B2E4FFEFC39D503E12058A
:1054A80082F5BC740129F9E43AFA53C0F7E5C02043
:1054B800E31690070C7401F0A3E0640170EF900705
:1054C8000CF0A3F01200B222E490070CF0A3F0AEA7
:1054D800BDEE642860031200B20F80BD43C01053B4
:1054E800C0F7E5C020E41690070C7401F0A3E0644F
:1054F8000170EF90070CF0A3F01200B222E49007BD
:045508000CF0A3F010
:01550C00227C
:104E780043C02053C0F7E5C020E31690070C740127
:104E8800F0A3E0640170EF90070CF0A3F01200B2F9
:104E980022E490070CF0A3F0AFBDEF6408600312A2
:104EA80000B253C0DF75BCE153C0F7E5C020E3167C
:104EB80090070C7401F0A3E0640170EF90070CF008
:104EC800A3F01200B222E490070CF0A3F0AFBDEFFC
:104ED800644060031200B2E490070FF090070FE0FF
:104EE800C39DEC6480F8748098504643C00453C056
:104EF800F7E5C020E31690070C7401F0A3E0640105
:104F080070EF90070CF0A3F01200B222E490070CA7
:104F1800F0A3F0AFBDEF645060031200B2E5BC121D
:104F280005EA740129F9E43AFA90070FE004F080E1
:104F3800AB53C0FB53C0F7E5C020E31690070C74D1
:104F480001F0A3E0640170EF90070CF0A3F01200E9
:104F5800B222E490070CF0A3F0AFBDEF64586003F1
:104F68001200B243C01053C0F7E5C020E416900702
:104F78000C7401F0A3E0640170EF90070CF0A3F04B
:0B4F88001200B222E490070CF0A3F02E
:014F930022FB
:1065020075910253E10F43E14075910143BD084388
:10651200BE0875910253E1F043E10475910143BD58
:106522000443BE04E4F59175BE0D43C0409006FCE1
:106532007480F0A3745DF07B017A0679FC7D02120F
:106542005438E4900704F09006FC7435F0A37417F5
:09655200F07A0679FC125438229B
:10362C00900704E0FC701C9006FC7435F0A3741732
:10363C00F07B017A0679FC7D0212543890070474F1
:10364C0001F022EC6401701C9006FC747CF0A374F5
:10365C00A2F07B017A0679FC7D02125438900704A3
:0F366C007402F022900704E0FF7E006402701CDD
:10367B009006FAE004F0E0D3941474809480500325
:0B368B00023809E4F09007047403F01B
:1036960022EF64034E60030237E47B017A0679FE6B
:1036A6007D06FC124E789007047404F07A0679FEC3
:1036B6007D021264A990070BEFF07B017A0779016E
:1036C6007D027C001264A990070BEFF07B017A065D
:1036D60079FE7D027C001264A9900700E06F60030A
:1036E6000238097B017A0779017D02FC1264A990F0
:1036F6000703E06F60030238099006FEE0FF9007BB
:1037060007E4F0A3EFF0E0F8E4F0E8900707F090A4
:1037160006FFE0FF900708E02FF0900707E034006F
:10372600F0E0FCA3E0FDE41203D2E4FBFA79807832
:10373600471202B77B007AC079DA78441201AE12DA
:10374600040B900707EEF0A3EFF0C394C2EE9401CA
:103756004013E0243EF0900707E034FEF090070E99
:103766007401F08019900707E0FEA3E0FFC374C25E
:103776009FF074019E900707F0E490070EF0900703
:1037860007E0FFA3E0900705CFF0A3EFF090070155
:10379600E0FF900709E4F0A3EFF0E0F8E4F0E8902A
:1037A6000709F0900702E0FF90070AE02FF0900764
:1037B60009E03400F0E0FCA3E0FDE41203D2E4FBF0
:1037C600FA798078471202B7E4FBFA79C878421290
:1037D60001AE12040B900709EEF0A3EFF02290075A
:1037E60004E06404701D9006FC74B0F0A37498F0B5
:1037F6007B017A0679FC7D02125438E4900704F0C6
:0438060012723722E1
:1063370043C02053C0F7E5C030E3FBAEBDEE6408B1
:1063470060031200B253C0DF75BCE053C0F7E5C06D
:1063570030E3FBAEBDEE641860031200B2E4FEEE5C
:10636700C3940A74809480501A8FBC53C0F7E5C059
:1063770030E3FBADBDED642860031200B2EFF4FF1C
:0E6387000E80DC43C01053C0F7E5C020E4FBDD
:0163950022E5
:105D820043C02053C0F7E5C030E3FBAEBDEE64086C
:105D920060031200B253C0DF75BCE153C0F7E5C027
:105DA20030E3FBAEBDEE644060031200B2E4FEEEEF
:105DB200C3940A74809480502343C00453C0F7E50F
:105DC200C030E3FBADBDED645060031200B2E5BC30
:105DD2006F60031200B2EFF4FF0E80D353C0FB5387
:105DE200C0F7E5C030E3FBAFBDEF645860031200BB
:0C5DF200B243C01053C0F7E5C020E4FB32
:015DFE002282
:09719200900705E0FEA3E0FF22D6
:09719B00900709E0FEA3E0FF22C9
:106E4B0090070CE06401701B9006FBE004F0E0D3AC
:106E5B00940A74809480400B90070D7401F0E490B9
:036E6B0006FBF033
:016E6E002201
:06722B0090070EE0FF22B7
:0771E80090070E7401F02274
:106FA900E4F5915389F0F591538EF7F591758CC1FC
:0C6FB900758A0F43A802D2AF4388102253
:03000B0002342993
:10342900C0E0C0F0C083C082C0D075D000C000C069
:1034390001C002C003C004C005C006C007C0917521
:103449009100758CC1758A0FC28D9006B9E004F0A0
:10345900A3E004F09006BCE004F070069006BBE01F
:1034690004F09006BEE004F070069006BDE004F09A
:103479009006C0E004F070069006BFE004F09006E4
:10348900C2E004F070069006C1E004F09006C4E0C2
:1034990004F070069006C3E004F09006C6E004F05C
:1034A90070069006C5E004F09006C8E004F07006C6
:1034B9009006C7E004F09006CAE004F07006900692
:1034C900C9E004F09006CCE004F070069006CBE069
:1034D90004F07F0412527F9006B9E0C3940174800E
:1034E9009480400E126E4B9006CD7401F09006B98F
:1034F900E4F09006BAE0C3940A74809480400B907B
:1035090006CE7401F09006BAE4F0C39006BCE094CC
:10351900149006BBE09400400D9006CF7401F09022
:1035290006BBE4F0A3F0C39006BEE0941E9006BD6E
:10353900E09400400D9006D07401F09006BDE4F0CF
:10354900A3F0C39006C0E094289006BFE094004021
:103559000D9006D17401F09006BFE4F0A3F0C3907A
:1035690006C2E094329006C1E09400400D9006D264
:103579007401F09006C1E4F0A3F0C39006C4E0948E
:10358900649006C3E09400400D9006D37401F09056
:1035990006C3E4F0A3F0C39006C6E0942C9006C5D8
:1035A900E09401400D9006D47401F09006C5E4F052
:1035B900A3F0C39006C8E094F49006C7E0940140D4
:1035C9000D9006D57401F09006C7E4F0A3F0C390FE
:1035D90006CAE094E89006C9E09403400D9006D627
:1035E9007401F09006C9E4F0A3F0C39006CCE0940E
:1035F900889006CBE09413400D9006D77401F090A3
:1036090006CBE4F0A3F0D091D007D006D005D004C2
