:0F2FC0000A2048656C6C6F20776F726C6421007B
:102C4C00120ECD122A23122AAC122AEE122ED512F3
:102C5C001CFA12186B122B30122FFB12006E122B57
:102C6C00E61220427BFF7A2F79C012012180EF22DD
:042FCF004102AF000C
:03009B00022EBB77
:102EBB00C0E0C083C082C0917591009002AFE5D98C
:0A2ECB00F0D091D082D083D0E03225
:1021AF00900217120932E4F59143D601F59143D706
:1021BF0001F59143D702F59153D6EFF59153D6F729
:1021CF007B08FAF9F8900217E0FCA3E0FDA3E0FE0C
:1021DF00A3E0FF12088D90021BE0F8A3E0F9A3E043
:1021EF00FAA3E0FB12088DEF24FFFFEE34FFFEEDA4
:1021FF0034FFFDEC34FFFCEFE48FDB53DCF07B08A6
:10220F00FAF9F8900217E0FCA3E0FDA3E0FEA3E0CB
:10221F00FF12088D90021BE0F8A3E0F9A3E0FAA3E8
:10222F00E0FB12088DEF24FFFFEE34FFFEED34FFCD
:10223F00FDEC34FFFC780812091FEF540F42DCE469
:0E224F00F59143D74053D7CFF59143D6802267
:102F8D00E4F59153D6FDE5DF5402640260F8AFD944
:012F9D002211
:10000E00E4F59153D6FB8FD9E5DF440860FAE4F5A9
:05001E009153D6FB2206
:040003008F828E83D7
:03000700E493FF80
:01000A0022D3
:10041B00EE7016EF24FE600B04700EE4F59153E1C1
:10042B00EF8006E4F59143E110EDB41100400302B7
:10043B0006EE900444F828287302047702049D0208
:10044B0004C60204EF02051802054102056A020503
:10045B00930206BC0206D40205BC0205E702061293
:10046B0002063D0206680206920206E275910253ED
:10047B00F40F43F41075910143B52053B6DF75911A
:10048B0001E4F5CE43CE01F59153A1F043E1010216
:10049B0006EE75910253F4F043F40175910143B5E7
:1004AB001053B6EF759101E4F5CE43CE02F591539F
:1004BB00A1F043A10143E1010206EE75910253F352
:1004CB000F43F31075910143B50853B6F7759101BE
:1004DB00E4F5CE43CE04F59153A1F043A10243E1E1
:1004EB00010206EE75910253F3F043F3017591018E
:1004FB0043B50453B6FB759101E4F5CE43CE08F535
:10050B009153A1F043A10343E1010206EE75910261
:10051B0053F20F43F21075910143B50253B6FD75BB
:10052B009101E4F5CE43CE10F59153A1F043A10414
:10053B0043E1010206EE75910253F2F043F20175AD
:10054B00910143B50153B6FE759101E4F5CE43CE4F
:10055B0020F59153A1F043A10543E1010206EE758D
:10056B00910253F60F43F61075910143C20253C328
:10057B00FD759101E4F5CE43CE40F59153A1F043C7
:10058B00A10643E1010206EE75910253F7F043F722
:10059B000175910143C20453C3FB759101E4F5CE80
:1005AB0043CE80F59153A1F043A10743E10102062D
:1005BB00EE75910253F6F043F60175910143C201BA
:1005CB0053C3FEE4F591759102F5CE43CE04F5913C
:1005DB0053A13043A10A43E1010206EE7591025388
:1005EB00950F43951075910243848053857FE4F5F5
:1005FB0091759102F5CE43CE08F59153A13043A1ED
:10060B000B43E1010206EE7591025395F043950100
:10061B007591024384405385BFE4F591759102F5C2
:10062B00CE43CE10F59153A13043A10C43E101020F
:10063B0006EE75910253940F439410759102438407
:10064B00205385DFE4F591759102F5CE43CE20F56D
:10065B009153A13043A10D43E1010206EE759102C6
:10066B005394F04394017591024384105385EFE446
:10067B00F591759102F5CE43CE40F59153A13043E0
:10068B00A10E43E101805C75910253F50F43F51008
:10069B0075910143B58053B67FE4F591759102F5E1
:1006AB00CE43CE80F59153A13043A10F43E101809E
:1006BB0032E4F59153E1FEF59143A140F59153A13D
:1006CB00F043A10843E101801AE4F59153A1F043F3
:1006DB00A10943E101800CE4F59153A1F043A10A78
:0A06EB0043E101E4F59143E101222F
:07300F00E4F59153E1FE22FC
:102CD8009002ABEEF0A3EFF0E4F591EFF5CB9002A4
:102CE800ABE0F5E4ED14F5E5EB14600A04700DE4CF
:0D2CF800F59143E78022E4F59153E77F2238
:102EA000E4F59153E78FEF5407FFC454F042E75322
:0B2EB000E2F1ED5407FF25E042E222B2
:1027ED00E4F591EF14600F14601414601924037054
:1027FD001B53A1CF801653A1CF43A110800E53A11F
:10280D00CF43A120800653A1CF43A130ED14600F1B
:10281D001460141460192403701B53E1F3801653D4
:10282D00E1F343E104800E53E1F343E108800653E5
:10283D00E1F343E10CAF038FE3E4F59153A1BF4303
:03284D00E1022283
:07301600E4F59153E1FD22F6
:102C7C00E4F591EF14600704702353A8BF22ED1400
:102C8C00600D24FE60112403701043E130800B436F
:0E2C9C00E10153E1DF800353E1CF43A8402262
:1025C800E4F591A2AF920EC2AF75C7AA75C755437D
:1025D8009F01A20E92AF75AF0475A60DF5A7F591F0
:1025E800A2AF920EC2AF75C7AA75C75543A401A280
:1025F8000E92AFE5AE540FFD75A60CE4F591A2AFAF
:10260800920EC2AF75C7AA75C75543A401A20E9210
:10261800AFAFAEEF75F010A47C002DFFEC35F0FEE7
:10262800E4F591A2AF920EC2AF75C7AA75C755530C
:062638009FFEA20E92AF0E
:01263E002279
:101C0F00EF14601B04702E759101A2AF920EC2AF3C
:101C1F0075C7AA75C75553A9FEA20E92AF80167548
:101C2F009101A2AF920EC2AF75C7AA75C75543A94E
:101C3F0001A20E92AFED14601B04702E759101A2DC
:101C4F00AF920EC2AF75C7AA75C75543A902A20EB0
:101C5F0092AF8016759101A2AF920EC2AF75C7AA4F
:101C6F0075C75553A9FDA20E92AFEB1460211460F6
:101C7F003514604914605D2404706F759101A2AF33
:101C8F00920EC2AF75C7AA75C755A20E92AF227535
:101C9F009101A2AF920EC2AF75C7AA75C75543A9DE
:101CAF0010A20E92AF22759101A2AF920EC2AF7524
:101CBF00C7AA75C75543A920A20E92AF22759101ED
:101CCF00A2AF920EC2AF75C7AA75C75543A930A26E
:101CDF000E92AF22759101A2AF920EC2AF75C7AA35
:0B1CEF0075C75543A940A20E92AF221A
:1024C400759101EB14604204707CEFB40700507600
:1024D4009024DBF82828730224F00224F40224F860
:1024E4000224FC022500022504022508ED42922262
:1024F400ED429322ED429422ED429522ED42962242
:10250400ED429722ED42972222EFB4070050379014
:10251400251AF828287302252F02253302253702AD
:10252400253B02253F022543022547ED428A22ED41
:10253400428B22ED428C22ED428D22ED428E22ED21
:07254400428F22ED428F22BD
:10230400759101EB14604F04600302239EEFB40740
:1023140000400302239E902321F8282873022336C9
:1023240002233B02234002234502234A02234F0295
:102334002354EDF4529222EDF4529322EDF452948C
:1023440022EDF4529522EDF4529622EDF4529722A6
:10235400EDF452972222EFB40700503E902367F821
:1023640028287302237C02238102238602238B0202
:10237400239002239502239AEDF4528A22EDF4521B
:102384008B22EDF4528C22EDF4528D22EDF4528E18
:0B23940022EDF4528F22EDF4528F2254
:071EB500A905900217EFF0F0
:101EBC00759101EFB407005044901ECCF82828739C
:101ECC00021EE1021EE7021EED021EF3021EF902C3
:101EDC001EFF021F05ACB1AEB28022ACB3AEB48013
:101EEC001CACB5AEB68016ACC2AEC38010ACB9AEED
:101EFC00BA800AACBDAEBE8004AC84AE85EB146077
:101F0C001414601A14602024037022E9F4FF5CFCA2
:101F1C00EE5FFE8018E9F45CFCEE49FE800FEC49A4
:101F2C00FCE9F45EFE8006EC49FCEE49FE900217DB
:101F3C00E0B40700503E901F49F8282873021F5E3A
:101F4C00021F63021F68021F6D021F72021F7702BD
:101F5C001F7C8CB18EB2228CB38EB4228CB58EB613
:101F6C00228CC28EC3228CB98EBA228CBD8EBE221C
:041F7C008C848E853E
:011F8000223E
:10271B00E4F591EF14603304705FE47B04FAF9F88D
:10272B00900295E0FCA3E0FDA3E0FEA3E0FF1208FE
:10273B008D900299E0F8A3E0F9A3E0FAA3E0FB1275
:10274B00088DEF14F5BE43C04022E47B04FAF9F880
:10275B00900295E0FCA3E0FDA3E0FEA3E0FF1208CE
:10276B008D900299E0F8A3E0F9A3E0FAA3E0FB1245
:0A277B00088DEF14F5B543E8402285
:102F4500E4F591EF14600704700753C0BF2253E8FE
:022F5500BF2299
:102EEF00E4F591EF14600A04700DE4F591439B0132
:082EFF0022E4F591439C20221E
:102F0700E4F591EF14600A04700DE4F591539BFE0C
:082F170022E4F591539CDF2236
:102F1F00E4F591EF146007047006AEBD8002AEB405
:022F2F00AF06EB
:012F3100227D
:1029CC00EF14602B04704FED14601114601514603B
:1029DC00192403701AE4F5918BC180137591028B45
:1029EC00A1800C7591028BA280057591028BA3EDD1
:1029FC0014601014601314601624037019E4F5911C
:102A0C008BB2227591028BA4227591028BA5227533
:072A1C009102AF038FA62217
:102F5700E4F591EF14600704700743BF062243B6F8
:022F6700062240
:102F6900E4F591EF14600704700753BFFB2253B6D1
:022F7900FB2239
:102F7B00E4F591EF14600704700753BFFE2253B6BC
:022F8B00FE2224
:102F9E00759102EF146006047006ED42CFED42D734
:012FAE002200
:102F3200759102EF146007047008EDF452CFEDF4BE
:032F4200F5D7229E
:042FD3004102B00007
:0300B300022E68B2
:102E6800C0E0C083C082C091759102D20F9002B0B9
:0C2E7800E5D9F0D091D082D083D0E032B8
:1020FB0090021712093275910243E6017591024362
:10210B00E70175910243E70275910253E6EF759172
:10211B000253E6F7E47B08FAF9F8900217E0FCA308
:10212B00E0FDA3E0FEA3E0FF12088D90021BE0F898
:10213B00A3E0F9A3E0FAA3E0FB12088DEF24FFFF65
:10214B00EE34FFFEED34FFFDEC34FFFCEFE48FDBF0
:10215B0053DCF07B08FAF9F8900217E0FCA3E0FDE2
:10216B00A3E0FEA3E0FF12088D90021BE0F8A3E0B2
:10217B00F9A3E0FAA3E0FB12088DEF24FFFFEE3486
:10218B00FFFEED34FFFDEC34FFFC780812091FEF66
:10219B00540F42DC75910243E74053E7CF75910230
:0421AB0043E6802265
:10007E0075910253E6FDE5DF60067E007F01800488
:0C008E007E007F00EF64024E60ECAFD9F2
:01009A002243
:10009E0075910253E6FB8FD9E5DF30E3FB759102D4
:0400AE0053E6FB22F8
:062FD700C109C10AC10B93
:102C1B0075910253F60F43F66075910153C2FD5344
:102C2B00C3FD90021B7402F0A312093E0001C20007
:102C3B007F007E367D6E7C011212BE439802D20954
:012C4B002266
:03002300022E2B7F
:102E2B00C0E0C083C082C09130980BD20B9002AD32
:0F2E3B00E599F05398FED091D082D083D0E03249
:03007B00022D84CF
:102D8400C0E0C083C082C09130F80AD20C9002AE79
:102D9400E59AF0C2F830F905200A02C2F9D091D0C0
:062DA40082D083D0E03272
:1012BE0090021712093290021BE024FE605D14703A
:1012CE00030213B624FD600D1470030213B6240638
:1012DE00600302143AE4F5917598504389204387D0
:1012EE0080F591438E10F59153C4DF7B10FAF9F817
:1012FE00900217E0FCA3E0FDA3E0FEA3E0FF1208BE
:10130E008D90021CE0F8A3E0F9A3E0FAA3E0FB1233
:10131E00088DEFF404F58D43884022E4F59175981D
:10132E005043878053C4F8F59143C4207B10FAF9DB
:10133E00F8900217E0FCA3E0FDA3E0FEA3E0FF128D
:10134E00088D90021CE0F8A3E0F9A3E0FAA3E0FBFD
:10135E0012088DC3E49FFFE49EFE74019DFDE49C84
:10136E00FC780812091F8FC6E47B10FAF9F8900278
:10137E0017E0FCA3E0FDA3E0FEA3E0FF12088D90B2
:10138E00021CE0F8A3E0F9A3E0FAA3E0FB12088D3B
:10139E00C3E49FFFE49EFE74019DFDE49CFCEFE41C
:1013AE008FC5F59143C40822E4F59175F85075C4C4
:1013BE00887B10FAF9F8900217E0FCA3E0FDA3E099
:1013CE00FEA3E0FF12088D90021CE0F8A3E0F9A343
:1013DE00E0FAA3E0FB12088DC3E49FFFE49EFE74C7
:1013EE00019DFDE49CFC780812091F8FC6E47B105A
:1013FE00FAF9F8900217E0FCA3E0FDA3E0FEA3E0EB
:10140E00FF12088D90021CE0F8A3E0F9A3E0FAA306
:10141E00E0FB12088DC3E49FFFE49EFE74019DFD68
:0D142E00E49CFCEFE48FC5F59143C4082257
:102E4A00E4F591EF24F9600C0470103098FDAE9906
:0D2E5A00C298800730F8FDAE9AC2F8AF06AE
:012E67002248
:102DAA00E4F591EF24F9600D047015C2998D9930FC
:102DBA0099FDC29922C2F9AF058F9A30F9FDC2F97D
:012DCA0022E6
:102D0500EF24F96013047024ED14600704701D535B
:102D1500A8EF2243A8102222ED14600A04700DE4E6
:0D2D2500F591539CFE22E4F591439C0122A0
:10263F00EF14600B04700EE4F591538EBF8006E427
:10264F00F591438E40759101ED24FE602024FE60CC
:10265F002324FC602624F8602924F0602C24E060F9
:10266F002F24C06032247F703453DFF82253DFF8F9
:10267F0043DF022253DFF843DF022253DFF843DF49
:10268F00032253DFF843DF042253DFF843DF052231
:0E269F0053DFF843DF062253DFF843DF072244
:100C5800759101ED14600C1460112402701353DFB8
:100C68003F800E53DF3F43DF40800653DF3F43DFC3
:100C780080EB14600804700853DFEF800343DF1033
:100C8800EF146075147003020D57147003020DAD54
:100C9800147003020E03147003020E582405600337
:100CA800020EAB90021EE0FEA3E0FFE4FCFD900202
:100CB8001AE0F8A3E0F9A3E0FAA3E0FB120802E4C3
:100CC8007B64FAF9F812088D780812091F8FD390FF
:100CD800021EE0FEA3E0FFE4FCFD90021AE0F8A388
:100CE800E0F9A3E0FAA3E0FB120802E47B64FAF956
:100CF800F812088D8FDA020EAB90021EE0FEA3E018
:100D0800FFE4FCFD90021AE0F8A3E0F9A3E0FAA3DF
:100D1800E0FB120802E47B64FAF9F812088D7808FF
:100D280012091F8FD390021EE0FEA3E0FFE4FCFD32
:100D380090021AE0F8A3E0F9A3E0FAA3E0FB120896
:100D480002E47B64FAF9F812088D8FDB020EAB908F
:100D5800021EE0FEA3E0FFE4FCFD90021AE0F8A307
:100D6800E0F9A3E0FAA3E0FB120802E47B64FAF9D5
:100D7800F812088D780812091F8FD490021EE0FE21
:100D8800A3E0FFE4FCFD90021AE0F8A3E0F9A3E079
:100D9800FAA3E0FB120802E47B64FAF9F812088D62
:100DA8008FDC020EAB90021EE0FEA3E0FFE4FCFD28
:100DB80090021AE0F8A3E0F9A3E0FAA3E0FB120816
:100DC80002E47B64FAF9F812088D780812091F8F7B
:100DD800D590021EE0FEA3E0FFE4FCFD90021AE0BD
:100DE800F8A3E0F9A3E0FAA3E0FB120802E47B64AD
:100DF800FAF9F812088D8FDD020EAB90021EE0FEA4
:100E0800A3E0FFE4FCFD90021AE0F8A3E0F9A3E0F8
:100E1800FAA3E0FB120802E47B64FAF9F812088DE1
:100E2800780812091F8FC490021EE0FEA3E0FFE4B9
:100E3800FCFD90021AE0F8A3E0F9A3E0FAA3E0FBB6
:100E4800120802E47B64FAF9F812088D8FCC8053FB
:100E580090021EE0FEA3E0FFE4FCFD90021AE0F819
:100E6800A3E0F9A3E0FAA3E0FB120802E47B64FA2A
:100E7800F9F812088D780812091F8FC590021EE034
:100E8800FEA3E0FFE4FCFD90021AE0F8A3E0F9A35A
:100E9800E0FAA3E0FB120802E47B64FAF9F812080E
:100EA8008D8FCD90021AE0FCA3E0FDA3E0FEA3E045
:100EB800FF780812091F8FD190021AE0A3E0A3E07F
:050EC800A3E0F5D922B2
:10297000759101A2AF920EC2AFAE05EE541075C7AD
:10298000AA75C75542F9EF14601514601D1460252F
:102990002403702A75C7AA75C75543F901801F75AE
:1029A000C7AA75C75543F902801475C7AA75C755DC
:1029B00043F904800975C7AA75C75543F907EE7531
:0C29C000C7AA75C755F5FAA20E92AF2207
:102FAF0075910175C7AA75C755E4F5F9A20E92AFD1
:012FBF0022EF
:07301D00E4F59143D180228C
:07302400E4F59153D17F2276
:1026AD00EF14600B04700EE4F591538EBF8006E4B9
:1026BD00F591438E40759102ED24FE602024FE605D
:1026CD002324FC602624F8602924F0602C24E0608B
:1026DD002F24C06032247F7034539DF822539DF80F
:1026ED00439D0222539DF8439D0222539DF8439D25
:1026FD000322539DF8439D0422539DF8439D0522CB
:0E270D00539DF8439D0622539DF8439D0722DD
:10112600900217EDF0C091EF24FE70030211C61471
:101136007003021247240260030212BB900217E0FA
:1011460024FE602824FE603024FC603824F86040C9
:1011560024F0604824E0605024C06058247F600377
:101166000212BB759102539DF80212BB7591025390
:101176009DF8439D010212BB759102539DF8439D54
:10118600020212BB759102539DF8439D030212BBE6
:10119600759102539DF8439D040212BB759102534B
:1011A6009DF8439D050212BB759102539DF8439D20
:1011B600060212BB759102439D070212BB0212BBC7
:1011C600900217E024FE602824FE603024FC60387C
:1011D60024F8604024F0604824E0605024C0605742
:1011E600247F60030212BB75910253C5F80212BB3D
:1011F60075910253C5F843C5010212BB759102539E
:10120600C5F843C5020212BB75910253C5F843C522
:10121600030212BB75910253C5F843C5040212BB03
:1012260075910253C5F843C5050212BB7591025369
:10123600C5F843C506807E75910243C50780768052
:1012460074900217E024FE602424FE602B24FC60C8
:101256003224F8603924F0604024E0604724C060FE
:101266004E247F705075910253D5F88048759102CF
:1012760053D5F843D501803D75910253D5F843D532
:1012860002803275910253D5F843D50380277591B4
:101296000253D5F843D504801C75910253D5F84303
:1012A600D505801175910253D5F843D5068006758C
:0812B600910243D507D09122FB
:101AFC00900218EDF0C091759102EF24FE605F1416
:101B0C007003021BBB24026003021C0C900218E041
:101B1C0014602404704090021BE0FCA3E0FDAF03B2
:101B2C00AE0212076F7C007D64120781AC06AD0714
:101B3C00ECF58A8D9A801F90021BE0FCA3E0FDAFB0
:101B4C0003AE0212076F7C007D64120781AC06ADF8
:101B5C0007ECF58B8D9BEAF5868B99021C0C900299
:101B6C0018E014602404704090021BE0FCA3E0FD1C
:101B7C00AF03AE0212076F7C007D64120781AC06C6
:101B8C00AD07ECF5BA8DC2801F90021BE0FCA3E000
:101B9C00FDAF03AE0212076F7C007D64120781ACAF
:101BAC0006AD07ECF5BB8DC3EAF5B98BC18051903E
:101BBC000218E014602404704090021BE0FCA3E0C7
:101BCC00FDAF03AE0212076F7C007D64120781AC7F
:101BDC0006AD07ECF5CA8DD2801F90021BE0FCA36A
:101BEC00E0FDAF03AE0212076F7C007D641207812B
:101BFC00AC06AD07ECF5CB8DD3EAF5C9AF038FD1AD
:031C0C00D0912252
:0B143B009002A5EEF0A3EFF0A3EDF08F
:10144600E4A3F09002A5E0FEA3E07807CEC313CE96
:1014560013D8F97807C333CE33CED8F9FF9002A953
:10146600EEF0A3EFF0E49002A8F09002A8E0FFC32C
:1014760094807480948050299002AAE02FFF9002F5
:10148600A9E03400FE1200037E009002A8E0240DBD
:10149600F582E43401F583EFF09002A8E004F080D1
:1014A600C99002A7E0FF7C009002A6E0547F240DBD
:1014B600F582EC3401F583EFF09002A9E0FEA3E09B
:1014C600F5A6EEF5A775AEFFE4F591A2AF920EC2B2
:1014D600AF75C7AA75C755439F01A20E92AFF59186
:1014E600A2AF920EC2AF75C7AA75C75543A501A292
:1014F6000E92AF75AF22F591A2AF920EC2AF75C72D
:10150600AA75C75543A401A20E92AFF591A2AF9258
:101516000EC2AF75C7AA75C755439F01A20E92AFFB
:10152600F591A2AF920EC2AF75C7AA75C75543A56E
:1015360001A20E92AF75AF219002A8F09002A8E02A
:10154600FDC39480748094805038A3E0FEA3E0FC31
:10155600ED2CF5A6EEF5A7740D2DF582E43401F514
:1015660083E0F5AEE4F591A2AF920EC2AF75C7AABD
:1015760075C75543A401A20E92AF9002A8E004F0ED
:1015860080BAE4F591A2AF920EC2AF75C7AA75C72D
:101596005553A5FEA20E92AFF591A2AF920EC2AF21
:0D15A60075C7AA75C755539FFEA20E92AFE0
:0115B3002215
:101F810090029DEEF0A3EFF0A3EBF0A3EAF0A3E93A
:011F9100F05F
:101F920090029DE0FCA3E0FDAE047807CEC313CE11
:101FA20013D8F9FB9002A2E0FEA3E02DFFEC3EFE67
:101FB200EF7807CEC313CE13D8F99002A4F09002A3
:101FC200A4E06B605690029DE0FEA3E0FFA3E0FB5D
:101FD200A3E0FAA3E0F99001927480F01209B5AD82
:101FE20007ED90029EE02FF090029DE03400F0EDAC
:101FF2009002A0E48FF01207D6EDC39002A3E09FF7
:10200200F09002A2E09400F090029DE0FEA3E0783E
:1020120007CEC313CE13D8F9FB80A39002A2E0FC33
:10202200A3E0FD4C601990029DE0FEA3E0FFA3E057
:0F203200FBA3E0FAA3E0F9900192EDF01209B5DB
:01204100227C
:1027850090021CEEF0A3EFF0A3EBF0A3EAF0A3E9AF
:01279500F053
:10279600E4900223F0A3F0900221E0FEA3E0FFA361
:1027A600E0FCA3E0FDC39FEC9E503B90021DE02D94
:1027B600FF90021CE03C8F82F583E493FF90021E9B
:1027C600E0FBA3E0FAA3E0F9900223E0A3E0F582A0
:1027D6008C83EF12074D900224E004F070069002FD
:0627E60023E004F080B1C5
:0127EC0022CA
:1009B50090018DEEF0A3EFF0A3EBF0A3EAF0A3E92D
:0109C500F041
:1009C600E4F591A2AF920EC2AF75C7AA75C755439B
:1009D6009F01A20E92AFF591A2AF920EC2AF75C75C
:1009E600AA75C75543A501A20E92AF90018DE0FEF0
:1009F600A3E0FF547FFD900194F0C374809DFD90A9
:100A06000193F0900192E0D39D4006A3E0900192FD
:100A1600F0900195EEF0A3EFF0E4900193F09001D1
:100A260092E0FFA3E0FEC39F501B900195E0FCA35C
:100A3600E02EF582E43CF583E493F470089001938C
:100A4600E004F080D9900193E06F6003020AFC7520
:100A5600AF2190018DE0FEA3E0F5A6EEF5A7E490A8
:100A66000193F0900192E0FFA3E0FEC39F50359002
:100A7600018FE0FBA3E0FAA3E0F98E8275830012F2
:100A8600070EF5AEE4F591A2AF920EC2AF75C7AAF6
:100A960075C75543A401A20E92AF05A6900193E037
:100AA60004F080BFE4900193F0900192E0FFA3E090
:100AB600FEC39F502F90018FE0FBA3E0FAA3E0F95D
:100AC6008E8275830012070EFF900195E0FCA3E06D
:100AD6002EF582E43CF583E493B50708900193E094
:100AE60004F080C5900192E0FFA3E06F7003020C52
:100AF6003C8003020C3C90018DE0FFA3E054809003
:100B06000195CFF0A3EFF0E4900193F0900193E00C
:100B1600C39480748094805027E0FF900195E0FC98
:100B2600A3E02FF582E43CF583E493FE74972FF55A
:100B360082E43401F583EEF0900193E004F080CC7A
:100B4600E4900193F0900192E0FFA3E0C39F50313F
:100B560090018FE0FBA3E0FAA3E0F9900193E0FF98
:100B6600F58275830012070EFE900194E02F2497FC
:100B7600F582E43401F583EEF0900193E004F08011
:100B8600C490018DE0FEA3E05480F5A6EEF5A775AE
:100B9600AF2275AEFFE4F591A2AF920EC2AF75C754
:100BA600AA75C75543A401A20E92AF75AF21900155
:100BB60093F0900193E0FFC3948074809480502D4D
:100BC60074972FF582E43401F583E0F5AEE4F591F0
:100BD600A2AF920EC2AF75C7AA75C75543A401A2AC
:100BE6000E92AF05A6900193E004F080C5E4900153
:100BF60093F0900193E0FF7E00C39480748094800C
:100C0600502BE0FD900195E0FAA3E02DF582E43A41
:100C1600F583E493FC74972DF582E43401F583E0C3
:100C2600FDECB50508900193E004F080C5EF648003
:100C36004E6003020B87E4F591A2AF920EC2AF7528
:100C4600C7AA75C755539FFEA20E92AF900192E0B8
:010C5600FF9E
:010C5700227A
:10002600900217EFF0A3EDF0A3EBF0123032E4FFED
:10003600122DEB900217E014600B04700E759103FD
:1000460053F9BF800675910343F94053F9C09002F6
:100056001AE042F953F9F3A3E042F9900219E0F5E8
:08006600F1900218E0F5FF2201
:102B6E00759103EF54C042FFEF24C0602C24C06067
:102B7E002814600714600924417021AF058FFD22CF
:102B8E0043FF80759103A2AF920EC2AF75C7AA75AF
:0D2B9E00C75543F402A20E92AFE4F5FD22EC
:102DCB00759103EF24FE600B04700E75910353FA9B
:102DDB00EF800675910343FA1053FAF8ED42FA228D
:0F2FDE00759103ED42FEEF33333354F842FE2278
:102D3200759103EF25E025E04D4EFE75C7AA75C7D4
:102D420055F5F4EBFE75C7AA75C7558EF5EAFE7503
:0A2D5200C7AA75C7558EE943F901C1
:012D5C002254
:102DEB00EF60047E3C8002E4FE759103E4FFEFC3C9
:0F2DFB0094187480948050078FFB8EFC0F80EF2C
:012E0A0022A5
:102E8400EF601224FD600E1460042403700D75912C
:0C2E94000343FA082275910353FAF72259
:102D5D00759103AE058EFBEB600EA807740108801C
:102D6D0002C333D8FC42FC22A8077401088002C3B9
:072D7D0033D8FCF452FC22E4
:07302B0075910343F98022B7
:0730320075910353F97F22A1
:0300000002239F39
:10239F00787FE4F6D8FD9000007FFF7E10E4F0A375
:0A23AF00DFFCDEFA7581210223F441
:102E0B007D047F017E0012041B7D077F03122EA021
:102E1B007B027D017F01121C0FE4F59153A17F22F0
:102BAB00E4F59153A17FF59143A140E5A130E7FBFB
:102BBB00AFC3EF75F010A4FFAEF0ADC2E5F0EF4D73
:102BCB00FF7C0A7D0012076F7C0F7DFF120781E4EB
:0A2BDB00F59153A17FF59153A1BFBE
:012BE50022CD
:102A690090024A7411F0A37401F0A3F090024BE0B4
:102A7900FF90024AE02F04F40490024DF090024ABC
:102A8900E0900240F090024BE0900241F090024C3D
:102A9900E0900242F090024DE0900243F090026112
:032AA900E0FF2229
:1028B10090021CEBF0A3EAF0A3E9F0A3ECF0A3ED86
:0128C100F026
:1028C2007FFF90021F74FFF5F01207EC45F0603EA7
:1028D20090021CE0FBA3E475F0011207ECA9F0FAE8
:1028E2001206F56FFFE4900221F0900221E0C394FA
:1028F200087480948050CBEF30E007C3136431FF3B
:0E2902008004EFC313FF900221E004F080DC9C
:0129100022A4
:1019B700E4FDEF7807CEC313CE13D8F97807C33306
:1019C700CE33CED8F9FF90021EEEF0A3EFF0E4FD80
:1019D700EDC3948074809480503290021DE0FFED37
:1019E700C39F50191206F5FF740D2DF582E43401DB
:1019F700F583EFF0740129F9E43AFA800C740D2DA0
:101A0700F582E43401F583E4F00D80C490021EE012
:101A1700FEA3E0F5A6EEF5A775AEFFE4F591A2AF3C
:101A2700920EC2AF75C7AA75C755439F01A20E9202
:101A3700AFF591A2AF920EC2AF75C7AA75C755434E
:101A4700A501A20E92AF75AF22F591A2AF920EC279
:101A5700AF75C7AA75C75543A401A20E92AFF591FA
:101A6700A2AF920EC2AF75C7AA75C755439F01A211
:101A77000E92AFF591A2AF920EC2AF75C7AA75C706
:101A87005543A501A20E92AF75AF21FDEDC394801A
:101A970074809480503390021EE0FEA3E02DF5A6DB
:101AA700EEF5A7740D2DF582E43401F583E0F5AE6C
:101AB700E4F591A2AF920EC2AF75C7AA75C7554399
:101AC700A401A20E92AF0D80C3E4F591A2AF920ECE
:101AD700C2AF75C7AA75C75553A5FEA20E92AFF53B
:101AE70091A2AF920EC2AF75C7AA75C755539FFE95
:041AF700A20E92AFFA
:011AFB0022C8
:1015B400900217EDF0EF6003021717900217E06036
:1015C40003021648900000E0FF7E00700604F0A3BA
:1015D400F0800CEF64014E7006900000F0A3F07BE5
:1015E400017A0079017D057C001228B1900006EF94
:1015F400F0C2AF7B017A00790190021D7406F07F7E
:10160400807EFF1219B77A007907900221E4F0A3D3
:101614007406F07F807EFF1227857B017A007907AC
:101624007D057C001228B190000CE06F60137B01F3
:101634007A00790190021D7406F07F807EFF1219F2
:10164400B7D2AF22900217E06401600302171712A9
:101654002A697F00C00712304B740D2FF582E434E1
:1016640000F583D0E0F0122A69C00712304B740EE3
:101674002FF582E43400F583D0E0F012305190006D
:101684008AEFF012304B90008BEFF07B017A0079F7
:101694000D7D7F7C001228B190008CEFF0C2AF90DA
:1016A4000000E075F080A42400FFE5F03438FE7BF0
:1016B400017A00790D90021D7480F01219B7900020
:1016C40000E075F080A42400FFE5F03438FE7A00D1
:1016D400798D900221E4F0A37480F01227857B01B8
:1016E4007A00798D7D7F7C001228B1900086E06FAE
:1016F400601F900000E075F080A42400FFE5F03442
:1017040038FE7B017A00790D90021D7480F0121965
:04171400B7D2AF2277
:100ECD00C2AF7B017A007907900221E4F0A374068A
:100EDD00F07F807EFF1227857B017A0079077D05E3
:100EED007C001228B190000CE06F607B7B017A00D2
:100EFD007907900221E4F0A37406F07F807EFF1243
:100F0D0027857B017A0079077D057C001228B19039
:100F1D00000CE06F6017E4900001F0A3F0A3F0A3C4
:100F2D00F0A3F0900001E0900000F08072900007B7
:100F3D00E0900001F0900008E0900002F0900009B0
:100F4D00E0900003F090000AE0900004F090000B98
:100F5D00E0900005F090000CE0900006F09000018C
:100F6D00E0900000F08038900007E0900001F090D4
:100F7D000008E0900002F0900009E0900003F0906E
:100F8D00000AE0900004F090000BE0900005F09056
:100F9D00000CE0900006F0900001E0900000F09051
:100FAD000000E075F080A42400FFE5F03438FE7BEE
:100FBD00017A00798D900221E4F0A37480F012275C
:100FCD00857B017A00798D7D7F7C001228B19000A0
:100FDD0086E06F70030210B5900000E075F080A4FC
:100FED002400FFE5F03438FE7B017A00798D900204
:100FFD0021E4F0A37480F01227857B017A00798DAE
:10100D007D7F7C001228B1900086E06F602AE4900D
:10101D00021BF090021BE0FFC3948074809480400B
:10102D000302112374012FF582E43400F583E4F0FB
:10103D0090021BE004F080DBE490021BF090021B99
:10104D00E0C39480748094805021E0FF2407F582E2
:10105D00E43400F583E0FE74012FF582E43400F5ED
:10106D0083EEF090021BE004F080D290008AE0FF46
:10107D00900217F090008BE0900218F0E0FE240D26
:10108D00F582E43400F583E0900219F0740E2EF52C
:10109D0082E43400F583E090021AF012305790028A
:1010AD0018E0FF12305D806EE490021BF090021B81
:1010BD00E0C39480748094805021E0FF2407F58272
:1010CD00E43400F583E0FE74012FF582E43400F57D
:1010DD0083EEF090021BE004F080D290008AE0FFD6
:1010ED00900217F090008BE0900218F0E0FE240DB6
:1010FD00F582E43400F583E0900219F0740E2EF5BC
:10110D0082E43400F583E090021AF0123057900219
:08111D0018E0FF12305DD2AFB3
:0111250022A7
:0A2FFB007591025384F75385F72205
:101DDC00759102E5A75408FF131313541F90028545
:101DEC00F0E06401602C90027FE004F0E0D39405F5
:101DFC00748094804021900285E06401600D900213
:101E0C00837401F0E490027FF0800CE490027FF088
:101E1C008005E490027FF0900283E06401707B9077
:101E2C000280E004F0900285E06401706DA3E06430
:101E3C0001703E900281E0C3944674809480500BF4
:101E4C00A3E004F0E4900281F0804F900282E0FF66
:101E5C007E00640170089002877402F0800CEF64BD
:101E6C00034E70069002877403F0E4900286F080B3
:101E7C0029900280E0C394327480948050119002B7
:101E8C00867401F0900282F0E4900280F0800B9056
:101E9C0002877404F0E4900280F0900286E0640102
:091EAC007006900281E004F022AE
:04306300121DDC223C
:10186B0075910253EB0F43EB5075910253EBF04321
:10187B00EB0575910253ED0F43ED5075910253ED4E
:10188B00F043ED0575910253FCF043FC0275910298
:10189B0053FC0F43FC2075910253E9F043E90275A9
:1018AB00910253E90F43E92075910253F2F043F291
:1018BB000275910253F20F43F22075910253F5F02A
:1018CB0043F50275910253F50F43F52075910253C1
:1018DB0094F043940275910253940F4394207591A5
:1018EB00025395F043950275910253950F43952042
:1018FB0075910253F6F043F60275910253F60F43BE
:10190B00F62075910253F7F043F70275910253F7E6
:10191B000F43F72075910253EE0F43EE20759102A2
:10192B0053EEF043EE0275910253F10F43F1207524
:10193B00910253F1F043F10275910253FF0F43FFF4
:10194B002075910253FFF043FF027591025392F001
:10195B0043920275910253920F4392207591025359
:10196B0093F043930275910253FD0F43FD30759134
:10197B000253FEF043FE037D017F01122DCB90023B
:10198B001A7430F0E4A3F07B2C7D027F0112002649
:10199B007D017F41122B6E7D037F01122FDE7F03B2
:0C19AB00122E8412302B7F01122DEB2233
:0A3005007B01E4FD7F04122D5D2223
:101CFA007B017DB07F05121EB5D284D285D2B6E4AF
:101D0A00F59143B1B07D087F0212112675910253F5
:101D1A00EC0F43ECC075910153B9F743BA0890022E
:101D2A001BE4F0A37432F07B567A04E4FD7F0212BE
:101D3A001AFC75910243C4407D08E4FF12263F75E0
:101D4A00910253FB0F43FBD075910153B1DF43B2AC
:101D5A002090021A12093E0000045690021EE4F076
:101D6A00A37432F0E4FBFDFF120C5875910253FB89
:101D7A00F043FB0D75910153B1EF43B21090021A73
:101D8A0012093E0000045690021EE4F0A37432F0D9
:101D9A00E4FBFD7F01120C5875910253EAF043EA05
:101DAA000C75910153C2BF43C34090021A12093EF7
:101DBA000000045690021EE4F0A37432F0E4FBFD26
:101DCA007F05120C58E4F59143D18075910243C402
:021DDA00802265
:06303900E4900293F02276
:102CAA0075910253F40F43F46075910143B52043C3
:102CBA00B62075910253F4F043F40675910143B5B9
:0E2CCA001043B610E4F59175BE0D43C04022D4
:0330670080FE22C6
:1028500043C02053C0F7E5C030E3FBAFBDEF6408D1
:10286000600312306753C0DF75BC7053C0F7E5C01A
:1028700030E3FBAFBDEF64186003123067E4FFEF95
:10288000C39D50211206F5F5BC740129F9E43AFA0A
:1028900053C0F7E5C030E3FBAEBDEE642860031221
:1028A00030670F80DA43C01053C0F7E5C020E4FB67
:0128B0002205
:1024390043C02053C0F7E5C030E3FBAFBDEF6408EC
:10244900600312306753C0DF75BC7153C0F7E5C034
:1024590030E3FBAFBDEF64406003123067E49002E4
:1024690017F0900217E0C39DEC6480F874809850CF
:102479002943C00453C0F7E5C030E3FBAFBDEF64A7
:10248900506003123067E5BC12073B740129F9E477
:102499003AFA900217E004F080C853C0FB53C0F722
:1024A900E5C030E3FBAFBDEF64586003123067430A
:0A24B900C01053C0F7E5C020E4FB9B
:0124C30022F6
:10225D00900293E0FC701C90028B7435F0A3741700
:10226D00F07B017A02798B7D0212285090029374D3
:10227D0001F022EC6401701C90028B747CF0A3744D
:10228D00A2F07B017A02798B7D0212285090029385
:0F229D007402F022900293E0FF7E006402701939
:1022AC0090028AE004F0E0D3941474809480404748
:0822BC00E4F09002937403F0BA
:1022C40022EF64034E70137B017A02798D7D06FC44
:1022D4001224399002937404F022900293E064046F
:1022E400701D90028B74B0F0A37498F07B017A0295
:1022F400798B7D02122850E4900293F0123045222B
:1029110043C02053C0F7E5C030E3FBAEBDEE640811
:10292100600312306753C0DF75BC7053C0F7E5C058
:1029310030E3FBAEBDEE64186003123067E4FEEED7
:10294100C3940A74809480501A8FBC53C0F7E5C0B9
:1029510030E3FBADBDED64286003123067EFF4FF97
:0E2961000E80DC43C01053C0F7E5C020E4FB3D
:01296F002245
:10254B0043C02053C0F7E5C030E3FBAEBDEE6408DB
:10255B00600312306753C0DF75BC7153C0F7E5C021
:10256B0030E3FBAEBDEE64406003123067E4FEEE79
:10257B00C3940A74809480502343C00453C0F7E57E
:10258B00C030E3FBADBDED64506003123067E5BCBA
:10259B006F6003123067EFF4FF0E80D353C0FB5311
:1025AB00C0F7E5C030E3FBAFBDEF645860031230FA
:0C25BB006743C01053C0F7E5C020E4FBEC
:0125C70022F1
:102ED500E4F59153890FF591538EF7758C2F758A0B
:0A2EE5001843A802D2AF4388102260
:03000B00021718C1
:10171800C0E0C083C082C0D0C091758C2F758A1874
:10172800C28D900262E004F0A3E004F0A3E004F0AC
:10173800A3E004F0A3E004F0A3E004F0A3E004F0C5
:10174800A3E004F090026BE004F0700690026AE0F7
:1017580004F090026DE004F0700690026CE004F072
:10176800900262E0C3940174809480400B90026EF2
:101778007401F0900262E4F0900263E0C3940A748A
:10178800809480400B90026F7401F0900263E4F043
:10179800900264E0C3941474809480400B900270AB
:1017A8007401F0900264E4F0900265E0C3941E7442
:1017B800809480400B9002717401F0900265E4F00F
:1017C800900266E0C3942874809480400B90027263
:1017D8007401F0900266E4F0900267E0C3943274FA
:1017E800809480400B9002737401F0900267E4F0DB
:1017F800900268E0C3946474809480400B900274F3
:101808007401F0900268E4F0900269E0C394C8742F
:10181800809480400B9002757401F0900269E4F0A6
:10182800C390026BE094F490026AE09401400D903A
:1018380002767401F090026AE4F0A3F0C390026D9E
:10184800E094E890026CE09403400D9002777401F4
:10185800F090026CE4F0A3F0D091D0D0D082D08385
:03186800D0E0329B
:1020420090026EE064017011900278E06401700306
:1020520012225DE490026EF02290026FE064017041
:102062000C123005123063E490026FF0229002707D
:10207200E06401704A90027BE06401703CA3E0647A
:1020820001700AFDFF1215B4E490027CF07D01E4B8
:10209200FF1215B490027DE02402F0E0D3945F7445
:1020A200809480400F90027C7401F090027EF0E4F4
:1020B20090027DF0E490027BF0E4900270F02290B6
:1020C2000277E064017031A304F0A3E004F0E0C3FE
:1020D200943C748094804009A3E004F0E490027977
:1020E200F090027AE0D3941E748094804005E4F06C
:0920F200A304F0E4900277F0224F
:06303F00900278E0FF2280
:06304500E4900278F02285
:06304B0090027DE0FF226F
:0630510090027EE0FF2268
:0630570090027EEFF02262
:06305D0090027DEFF0225D
:102A230075910253F30F43F36075910153B5F75357
:102A3300B6F775910253F3F043F30675910143B56D
:102A43000453B6FB90021B7403F0A312093E00006B
:102A530025807F007E367D6E7C011212BEE4F591E7
:062A6300439C01D2AF22EA
:102AAC0075910253F40F43F4D075910153B5DF5374
:102ABC00B6DF75910253F4F043F40D75910143B5F3
:102ACC001053B6EF90021B12093E000025807F00C8
:102ADC007E367D6E7C011221AFE4F59143DD01D28F
:022AEC00AF2217
:102AEE0075910253FEF043FE0675910153B3FB53ED
:102AFE00B4FB75910253FD0F43FD6075910143B315
:102B0E000253B4FD90021B12093E000025807F0087
:102B1E007E367D6E7C011220FB75910243DD01D263
:022B2E00AF22D4
:0E2FED0090023FEFF012009E90023FE0FF22A4
:102B300075C7AA75C75575AA07E4F591A2AF920E9D
:102B4000C2AF75C7AA75C75543AA80A20E92AFF54A
:102B500091A2AF920EC2AF75C7AA75C75543AA40DE
:0E2B6000A20E92AFAFAAEF44BF74FF60F7223F
:102BE600E4F591A2AF920EC2AF75C7AA75C7555349
:102BF600AADFA20E92AFF591A2AF920EC2AF75C731
:102C0600AA75C75543AA40A20E92AFAFAAEF44BF1A
:052C160074FF60F722CD
:0C006E007B017D087F01121EB5C29322A9
:1023B900022C4CE493A3F8E493A34003F68001F2C2
:1023C90008DFF48029E493A3F85407240CC8C33325
:1023D900C4540F4420C8834004F456800146F6DFF4
:1023E900E4800B0102040810204080902FCFE47E86
:1023F900019360BCA3FF543F30E509541FFEE493E9
:10240900A360010ECF54C025E060A840B8E493A3AF
:10241900FAE493A3F8E493A3C8C582C8CAC583CADA
:10242900F0A3C8C582C8CAC583CADFE9DEE780BE92
:012FDD0000F3
:1006F500BB010689828A83E0225002E722BBFE0203
:09070500E32289828A83E4932235
:10070E00BB010CE58229F582E5833AF583E02250A0
:10071E0006E92582F8E622BBFE06E92582F8E222EA
:0D072E00E58229F582E5833AF583E4932204
:10073B00BB010689828A83F0225002F722BBFE019D
:02074B00F32297
:10074D00F8BB010DE58229F582E5833AF583E8F0E2
:10075D00225006E92582C8F622BBFE05E92582C88E
:02076D00F22276
:10076F00EF8DF0A4A8F0CF8CF0A428CE8DF0A42E9E
:02077F00FE2258
:10078100BC000BBE0029EF8DF084FFADF022E4CC5C
:10079100F875F008EF2FFFEE33FEEC33FCEE9DEC25
:1007A100984005FCEE9DFE0FD5F0E9E4CEFD22ED6B
:1007B100F8F5F0EE8420D21CFEADF075F008EF2FB5
:1007C100FFED33FD4007985006D5F0F222C398FDA6
:0507D1000FD5F0EA2243
:1007D600C5F0F8A3E028F0C5F0F8E58215827002AE
:0607E6001583E038F0224B
:1007EC00A3F8E0C5F025F0F0E582158270021583C0
:0607FC00E0C838F0E8221D
:10080200E88FF0A4CC8BF0A42CFCE98EF0A42CFC95
:100812008AF0EDA42CFCEA8EF0A4CDA8F08BF0A413
:100822002DCC3825F0FDE98FF0A42CCD35F0FCEB72
:100832008EF0A4FEA9F0EB8FF0A4CFC5F02ECD3937
:0F084200FEE43CFCEAA42DCE35F0FDE43CFC22A4
:1008510075F008758200EF2FFFEE33FECD33CDCC5E
:1008610033CCC58233C5829BED9AEC99E5829840E1
:100871000CF582EE9BFEED9AFDEC99FC0FD5F0D6BE
:10088100E4CEFBE4CDFAE4CCF9A88222B800C1B9E8
:100891000059BA002DEC8BF084CFCECDFCE5F0CB26
:1008A100F97818EF2FFFEE33FEED33FDEC33FCEB5F
:1008B10033FB10D703994004EB99FB0FD8E5E4F91A
:1008C100FA227818EF2FFFEE33FEED33FDEC33FC07
:1008D100C933C910D7059BE99A4007EC9BFCE99AFB
:1008E100F90FD8E0E4C9FAE4CCFB2275F010EF2F40
:1008F100FFEE33FEED33FDCC33CCC833C810D70740
:100901009BEC9AE899400AED9BFDEC9AFCE899F87A
:0E0911000FD5F0DAE4CDFBE4CCFAE4C8F9220D
:10091F00E8600FECC313FCED13FDEE13FEEF13FFB6
:03092F00D8F122DA
:0C093200ECF0A3EDF0A3EEF0A3EFF02238
:10093E00A8828583F0D083D08212095512095512F0
:10094E000955120955E473E493A3C583C5F0C58315
:10095E00C8C582C8F0A3C583C5F0C583C8C582C803
:01096E002266
:1000B600E508241AF582E43402F583E00508229067
:1000C600021730070390021AE475F00112096F0255
:1000D60006F52000E97F2ED2008018EF540F2490F9
:1000E600D43440D4FF30040BEF24BFB41A005003BD
:1000F6002461FFE50960021509050CE50C7002058F
:100106000B30070E900217E475F00112096FEF022B
:10011600073B022FED7403D2078003E4C207F508FC
:10012600900217120986E4F509F50BF50CE509604E
:10013600077F201200F980F5750AFFC201C200C2CE
:1001460002C203C205C206C2081200C5FF700D3006
:1001560007057F0012010AAF0CAE0B22B4255FC261
:10016600D5C2041200C5FF24D0B40A00501A75F097
:100176000A780930D50508B6FF0106C6A426F6207A
:10018600D5047002D20380D924CFB41A00EF5004EC
:10019600C2E5D20402030BD20180C6D20080C0D2CF
:1001A6000280BCD2D580BAD20580B47F201200F975
:1001B6002002077401B5090040F11200B6FF1200D3
:1001C600F9020133D208D20680951200B6FB12005E
:1001D600B6FA1200B6F94A4B700679DC7A037BFF51
:1001E60020022EE509602A7E008E827583001207A2
:1001F6000E60060EEE650A70F0C2D5EBC0E0EAC0EE
:10020600E0E9C0E0EE120352D0E0F9D0E0FAD0E027
:10021600FB1206F5FF60AAEBC0E0EAC0E0E9C0E029
:100226001200F9D0E02401F9D0E03400FAD0E0FB66
:10023600E50A0460DCD50AD980877BFF7A03794E0C
:10024600D202809C791080027908C206C208800812
:10025600D2D5790A8004790AC2D5E50A047002F576
:100266000AE4FAFDFEFF1200B6FC7B082001131219
:1002760000B6FD7B1030000A1200B6FE1200B6FF73
:100286007B20EC3382D592D55013C3E43000069F11
:10029600FFE49EFEE42001039DFDE49CFCE4CBF814
:1002A600C201EC700CCFCECDCCE824F8F870F38008
:1002B60017C3EF33FFEE33FEED33FDEC33FCEB33C8
:1002C600FB994002FB0FD8E9EB300105F8D0E0C4FA
:1002D60048B201C0E00AEC4D4E4F78207B0070C258
:1002E600EAB50A0040BCC0E0120354D0F0D0E020CA
:1002F6000104C4C0E0C4B201C0F01200E2D0F0D5DF
:10030600F0EB02013312098F01D053024A5801A1C2
:100316004C019D42024E4F02564402564901B643D5
:08032600025C55024046024052
:10032E004502404703FC5001A52D01A92E01CC2BFF
:10033E0001AD2301CA2003E52A016548000001C46E
:10034E003F3F3F00790AA2D5200314300509B910AA
:10035E00020404B9080104A2D520060250010420AB
:10036E0002689202B509005034C0E07F20300319B4
:10037E007F30A20272067205500F1203ABC202C288
:10038E0006C205C2087F30800F300503E9C0E012B7
:10039E0000F9300503D0E0F9D0E0B509CC300517EF
:1003AE007F30B9100C1200F97F583004077F788027
:1003BE0003B908031200F93002057F2D0200F97F00
:1003CE00202008F87F2B2006F322920280CF286E81
:1003DE00756C6C2900D2011200B63001F8C201789A
:1003EE000930D50108F60201652D50434958120017
:1003FE00B62403B405004001E49003F7931200EA1B
:0D040E00743A1200EAD20375090402024A92
:10096F00F8E0FBA3A3E0F925F0F0E5821582700211
:07097F001583E0FA38F022B5
:09098600EBF0A3EAF0A3E9F02272
:10098F00D083D082F8E4937012740193700DA3A3F7
:10099F0093F8740193F5828883E47374029368600B
:0609AF00EFA3A3A380DF0B
:00000001FF
